{
  "contractName": "ClimateNFT",
  "abi": [
    {
      "inputs": [
        {
          "internalType": "string",
          "name": "baseUrl",
          "type": "string"
        },
        {
          "internalType": "string",
          "name": "name",
          "type": "string"
        },
        {
          "internalType": "string",
          "name": "symbol",
          "type": "string"
        }
      ],
      "stateMutability": "nonpayable",
      "type": "constructor"
    },
    {
      "anonymous": false,
      "inputs": [
        {
          "indexed": true,
          "internalType": "address",
          "name": "owner",
          "type": "address"
        },
        {
          "indexed": true,
          "internalType": "address",
          "name": "approved",
          "type": "address"
        },
        {
          "indexed": true,
          "internalType": "uint256",
          "name": "tokenId",
          "type": "uint256"
        }
      ],
      "name": "Approval",
      "type": "event"
    },
    {
      "anonymous": false,
      "inputs": [
        {
          "indexed": true,
          "internalType": "address",
          "name": "owner",
          "type": "address"
        },
        {
          "indexed": true,
          "internalType": "address",
          "name": "operator",
          "type": "address"
        },
        {
          "indexed": false,
          "internalType": "bool",
          "name": "approved",
          "type": "bool"
        }
      ],
      "name": "ApprovalForAll",
      "type": "event"
    },
    {
      "anonymous": false,
      "inputs": [
        {
          "indexed": true,
          "internalType": "address",
          "name": "previousOwner",
          "type": "address"
        },
        {
          "indexed": true,
          "internalType": "address",
          "name": "newOwner",
          "type": "address"
        }
      ],
      "name": "OwnershipTransferred",
      "type": "event"
    },
    {
      "anonymous": false,
      "inputs": [
        {
          "indexed": true,
          "internalType": "address",
          "name": "from",
          "type": "address"
        },
        {
          "indexed": true,
          "internalType": "address",
          "name": "to",
          "type": "address"
        },
        {
          "indexed": true,
          "internalType": "uint256",
          "name": "tokenId",
          "type": "uint256"
        }
      ],
      "name": "Transfer",
      "type": "event"
    },
    {
      "inputs": [
        {
          "internalType": "uint256",
          "name": "",
          "type": "uint256"
        }
      ],
      "name": "allTokens",
      "outputs": [
        {
          "internalType": "uint256",
          "name": "tokenId",
          "type": "uint256"
        },
        {
          "internalType": "string",
          "name": "ipfsHash",
          "type": "string"
        },
        {
          "internalType": "string",
          "name": "tokenName",
          "type": "string"
        },
        {
          "internalType": "string",
          "name": "tokenUrl",
          "type": "string"
        },
        {
          "internalType": "address",
          "name": "owner",
          "type": "address"
        }
      ],
      "stateMutability": "view",
      "type": "function",
      "constant": true
    },
    {
      "inputs": [
        {
          "internalType": "address",
          "name": "to",
          "type": "address"
        },
        {
          "internalType": "uint256",
          "name": "tokenId",
          "type": "uint256"
        }
      ],
      "name": "approve",
      "outputs": [],
      "stateMutability": "nonpayable",
      "type": "function"
    },
    {
      "inputs": [
        {
          "internalType": "address",
          "name": "owner",
          "type": "address"
        }
      ],
      "name": "balanceOf",
      "outputs": [
        {
          "internalType": "uint256",
          "name": "",
          "type": "uint256"
        }
      ],
      "stateMutability": "view",
      "type": "function",
      "constant": true
    },
    {
      "inputs": [
        {
          "internalType": "uint256",
          "name": "tokenId",
          "type": "uint256"
        }
      ],
      "name": "getApproved",
      "outputs": [
        {
          "internalType": "address",
          "name": "",
          "type": "address"
        }
      ],
      "stateMutability": "view",
      "type": "function",
      "constant": true
    },
    {
      "inputs": [
        {
          "internalType": "address",
          "name": "owner",
          "type": "address"
        },
        {
          "internalType": "address",
          "name": "operator",
          "type": "address"
        }
      ],
      "name": "isApprovedForAll",
      "outputs": [
        {
          "internalType": "bool",
          "name": "",
          "type": "bool"
        }
      ],
      "stateMutability": "view",
      "type": "function",
      "constant": true
    },
    {
      "inputs": [],
      "name": "name",
      "outputs": [
        {
          "internalType": "string",
          "name": "",
          "type": "string"
        }
      ],
      "stateMutability": "view",
      "type": "function",
      "constant": true
    },
    {
      "inputs": [],
      "name": "owner",
      "outputs": [
        {
          "internalType": "address",
          "name": "",
          "type": "address"
        }
      ],
      "stateMutability": "view",
      "type": "function",
      "constant": true
    },
    {
      "inputs": [
        {
          "internalType": "uint256",
          "name": "tokenId",
          "type": "uint256"
        }
      ],
      "name": "ownerOf",
      "outputs": [
        {
          "internalType": "address",
          "name": "",
          "type": "address"
        }
      ],
      "stateMutability": "view",
      "type": "function",
      "constant": true
    },
    {
      "inputs": [],
      "name": "renounceOwnership",
      "outputs": [],
      "stateMutability": "nonpayable",
      "type": "function"
    },
    {
      "inputs": [
        {
          "internalType": "address",
          "name": "from",
          "type": "address"
        },
        {
          "internalType": "address",
          "name": "to",
          "type": "address"
        },
        {
          "internalType": "uint256",
          "name": "tokenId",
          "type": "uint256"
        }
      ],
      "name": "safeTransferFrom",
      "outputs": [],
      "stateMutability": "nonpayable",
      "type": "function"
    },
    {
      "inputs": [
        {
          "internalType": "address",
          "name": "from",
          "type": "address"
        },
        {
          "internalType": "address",
          "name": "to",
          "type": "address"
        },
        {
          "internalType": "uint256",
          "name": "tokenId",
          "type": "uint256"
        },
        {
          "internalType": "bytes",
          "name": "data",
          "type": "bytes"
        }
      ],
      "name": "safeTransferFrom",
      "outputs": [],
      "stateMutability": "nonpayable",
      "type": "function"
    },
    {
      "inputs": [
        {
          "internalType": "address",
          "name": "operator",
          "type": "address"
        },
        {
          "internalType": "bool",
          "name": "approved",
          "type": "bool"
        }
      ],
      "name": "setApprovalForAll",
      "outputs": [],
      "stateMutability": "nonpayable",
      "type": "function"
    },
    {
      "inputs": [
        {
          "internalType": "bytes4",
          "name": "interfaceId",
          "type": "bytes4"
        }
      ],
      "name": "supportsInterface",
      "outputs": [
        {
          "internalType": "bool",
          "name": "",
          "type": "bool"
        }
      ],
      "stateMutability": "view",
      "type": "function",
      "constant": true
    },
    {
      "inputs": [],
      "name": "symbol",
      "outputs": [
        {
          "internalType": "string",
          "name": "",
          "type": "string"
        }
      ],
      "stateMutability": "view",
      "type": "function",
      "constant": true
    },
    {
      "inputs": [
        {
          "internalType": "uint256",
          "name": "tokenId",
          "type": "uint256"
        }
      ],
      "name": "tokenURI",
      "outputs": [
        {
          "internalType": "string",
          "name": "",
          "type": "string"
        }
      ],
      "stateMutability": "view",
      "type": "function",
      "constant": true
    },
    {
      "inputs": [
        {
          "internalType": "address",
          "name": "from",
          "type": "address"
        },
        {
          "internalType": "address",
          "name": "to",
          "type": "address"
        },
        {
          "internalType": "uint256",
          "name": "tokenId",
          "type": "uint256"
        }
      ],
      "name": "transferFrom",
      "outputs": [],
      "stateMutability": "nonpayable",
      "type": "function"
    },
    {
      "inputs": [
        {
          "internalType": "address",
          "name": "newOwner",
          "type": "address"
        }
      ],
      "name": "transferOwnership",
      "outputs": [],
      "stateMutability": "nonpayable",
      "type": "function"
    },
    {
      "inputs": [
        {
          "internalType": "address",
          "name": "",
          "type": "address"
        },
        {
          "internalType": "uint256",
          "name": "",
          "type": "uint256"
        }
      ],
      "name": "userTokens",
      "outputs": [
        {
          "internalType": "uint256",
          "name": "tokenId",
          "type": "uint256"
        },
        {
          "internalType": "string",
          "name": "ipfsHash",
          "type": "string"
        },
        {
          "internalType": "string",
          "name": "tokenName",
          "type": "string"
        },
        {
          "internalType": "string",
          "name": "tokenUrl",
          "type": "string"
        },
        {
          "internalType": "address",
          "name": "owner",
          "type": "address"
        }
      ],
      "stateMutability": "view",
      "type": "function",
      "constant": true
    },
    {
      "inputs": [],
      "name": "getAllToken",
      "outputs": [
        {
          "components": [
            {
              "internalType": "uint256",
              "name": "tokenId",
              "type": "uint256"
            },
            {
              "internalType": "string",
              "name": "ipfsHash",
              "type": "string"
            },
            {
              "internalType": "string",
              "name": "tokenName",
              "type": "string"
            },
            {
              "internalType": "string",
              "name": "tokenUrl",
              "type": "string"
            },
            {
              "internalType": "address",
              "name": "owner",
              "type": "address"
            }
          ],
          "internalType": "struct ClimateNFT.CToken[]",
          "name": "",
          "type": "tuple[]"
        }
      ],
      "stateMutability": "view",
      "type": "function",
      "constant": true
    },
    {
      "inputs": [],
      "name": "getUserToken",
      "outputs": [
        {
          "components": [
            {
              "internalType": "uint256",
              "name": "tokenId",
              "type": "uint256"
            },
            {
              "internalType": "string",
              "name": "ipfsHash",
              "type": "string"
            },
            {
              "internalType": "string",
              "name": "tokenName",
              "type": "string"
            },
            {
              "internalType": "string",
              "name": "tokenUrl",
              "type": "string"
            },
            {
              "internalType": "address",
              "name": "owner",
              "type": "address"
            }
          ],
          "internalType": "struct ClimateNFT.CToken[]",
          "name": "",
          "type": "tuple[]"
        }
      ],
      "stateMutability": "view",
      "type": "function",
      "constant": true
    },
    {
      "inputs": [
        {
          "internalType": "string",
          "name": "_tokenName",
          "type": "string"
        },
        {
          "internalType": "string",
          "name": "_ipfsHash",
          "type": "string"
        }
      ],
      "name": "mintCToken",
      "outputs": [],
      "stateMutability": "payable",
      "type": "function",
      "payable": true
    }
  ],
  "bytecode": "0x60806040523480156200001157600080fd5b50604051620043cf380380620043cf8339818101604052810190620000379190620004a9565b81818160009080519060200190620000519291906200025c565b5080600190805190602001906200006a9291906200025c565b5050506200008d62000081620000a760201b60201c565b620000af60201b60201c565b6200009e836200017560201b60201c565b50505062000649565b600033905090565b6000600660009054906101000a900473ffffffffffffffffffffffffffffffffffffffff16905081600660006101000a81548173ffffffffffffffffffffffffffffffffffffffff021916908373ffffffffffffffffffffffffffffffffffffffff1602179055508173ffffffffffffffffffffffffffffffffffffffff168173ffffffffffffffffffffffffffffffffffffffff167f8be0079c531659141344cd1fd0a4f28419497f9722a3daafe3b4186f6b6457e060405160405180910390a35050565b62000185620001a160201b60201c565b80600890805190602001906200019d9291906200025c565b5050565b620001b1620000a760201b60201c565b73ffffffffffffffffffffffffffffffffffffffff16620001d76200023260201b60201c565b73ffffffffffffffffffffffffffffffffffffffff161462000230576040517f08c379a00000000000000000000000000000000000000000000000000000000081526004016200022790620005c3565b60405180910390fd5b565b6000600660009054906101000a900473ffffffffffffffffffffffffffffffffffffffff16905090565b8280546200026a9062000614565b90600052602060002090601f0160209004810192826200028e5760008555620002da565b82601f10620002a957805160ff1916838001178555620002da565b82800160010185558215620002da579182015b82811115620002d9578251825591602001919060010190620002bc565b5b509050620002e99190620002ed565b5090565b5b8082111562000308576000816000905550600101620002ee565b5090565b6000604051905090565b600080fd5b600080fd5b600080fd5b600080fd5b6000601f19601f8301169050919050565b7f4e487b7100000000000000000000000000000000000000000000000000000000600052604160045260246000fd5b62000375826200032a565b810181811067ffffffffffffffff821117156200039757620003966200033b565b5b80604052505050565b6000620003ac6200030c565b9050620003ba82826200036a565b919050565b600067ffffffffffffffff821115620003dd57620003dc6200033b565b5b620003e8826200032a565b9050602081019050919050565b60005b8381101562000415578082015181840152602081019050620003f8565b8381111562000425576000848401525b50505050565b6000620004426200043c84620003bf565b620003a0565b90508281526020810184848401111562000461576200046062000325565b5b6200046e848285620003f5565b509392505050565b600082601f8301126200048e576200048d62000320565b5b8151620004a08482602086016200042b565b91505092915050565b600080600060608486031215620004c557620004c462000316565b5b600084015167ffffffffffffffff811115620004e657620004e56200031b565b5b620004f48682870162000476565b935050602084015167ffffffffffffffff8111156200051857620005176200031b565b5b620005268682870162000476565b925050604084015167ffffffffffffffff8111156200054a57620005496200031b565b5b620005588682870162000476565b9150509250925092565b600082825260208201905092915050565b7f4f776e61626c653a2063616c6c6572206973206e6f7420746865206f776e6572600082015250565b6000620005ab60208362000562565b9150620005b88262000573565b602082019050919050565b60006020820190508181036000830152620005de816200059c565b9050919050565b7f4e487b7100000000000000000000000000000000000000000000000000000000600052602260045260246000fd5b600060028204905060018216806200062d57607f821691505b602082108103620006435762000642620005e5565b5b50919050565b613d7680620006596000396000f3fe60806040526004361061012a5760003560e01c806385e3c1d4116100ab578063c87b56dd1161006f578063c87b56dd146103f4578063e546b9a314610431578063e985e9c51461045c578063f2fde38b14610499578063f94be159146104c2578063f9f411d8146104de5761012a565b806385e3c1d4146103215780638da5cb5b1461034c57806395d89b4114610377578063a22cb465146103a2578063b88d4fde146103cb5761012a565b806342842e0e116100f257806342842e0e14610226578063634282af1461024f5780636352211e1461029057806370a08231146102cd578063715018a61461030a5761012a565b806301ffc9a71461012f57806306fdde031461016c578063081812fc14610197578063095ea7b3146101d457806323b872dd146101fd575b600080fd5b34801561013b57600080fd5b5061015660048036038101906101519190612a26565b61051f565b6040516101639190612a6e565b60405180910390f35b34801561017857600080fd5b50610181610601565b60405161018e9190612b22565b60405180910390f35b3480156101a357600080fd5b506101be60048036038101906101b99190612b7a565b610693565b6040516101cb9190612be8565b60405180910390f35b3480156101e057600080fd5b506101fb60048036038101906101f69190612c2f565b6106d9565b005b34801561020957600080fd5b50610224600480360381019061021f9190612c6f565b6107f0565b005b34801561023257600080fd5b5061024d60048036038101906102489190612c6f565b610850565b005b34801561025b57600080fd5b5061027660048036038101906102719190612b7a565b610870565b604051610287959493929190612cd1565b60405180910390f35b34801561029c57600080fd5b506102b760048036038101906102b29190612b7a565b610a6e565b6040516102c49190612be8565b60405180910390f35b3480156102d957600080fd5b506102f460048036038101906102ef9190612d39565b610af4565b6040516103019190612d66565b60405180910390f35b34801561031657600080fd5b5061031f610bab565b005b34801561032d57600080fd5b50610336610bbf565b6040516103439190612f2f565b60405180910390f35b34801561035857600080fd5b50610361610e34565b60405161036e9190612be8565b60405180910390f35b34801561038357600080fd5b5061038c610e5e565b6040516103999190612b22565b60405180910390f35b3480156103ae57600080fd5b506103c960048036038101906103c49190612f7d565b610ef0565b005b3480156103d757600080fd5b506103f260048036038101906103ed91906130f2565b610f06565b005b34801561040057600080fd5b5061041b60048036038101906104169190612b7a565b610f68565b6040516104289190612b22565b60405180910390f35b34801561043d57600080fd5b50610446610fd0565b6040516104539190612f2f565b60405180910390f35b34801561046857600080fd5b50610483600480360381019061047e9190613175565b611282565b6040516104909190612a6e565b60405180910390f35b3480156104a557600080fd5b506104c060048036038101906104bb9190612d39565b611316565b005b6104dc60048036038101906104d79190613256565b611399565b005b3480156104ea57600080fd5b5061050560048036038101906105009190612c2f565b6116b6565b604051610516959493929190612cd1565b60405180910390f35b60007f80ac58cd000000000000000000000000000000000000000000000000000000007bffffffffffffffffffffffffffffffffffffffffffffffffffffffff1916827bffffffffffffffffffffffffffffffffffffffffffffffffffffffff191614806105ea57507f5b5e139f000000000000000000000000000000000000000000000000000000007bffffffffffffffffffffffffffffffffffffffffffffffffffffffff1916827bffffffffffffffffffffffffffffffffffffffffffffffffffffffff1916145b806105fa57506105f9826118c1565b5b9050919050565b606060008054610610906132fd565b80601f016020809104026020016040519081016040528092919081815260200182805461063c906132fd565b80156106895780601f1061065e57610100808354040283529160200191610689565b820191906000526020600020905b81548152906001019060200180831161066c57829003601f168201915b5050505050905090565b600061069e8261192b565b6004600083815260200190815260200160002060009054906101000a900473ffffffffffffffffffffffffffffffffffffffff169050919050565b60006106e482610a6e565b90508073ffffffffffffffffffffffffffffffffffffffff168373ffffffffffffffffffffffffffffffffffffffff1603610754576040517f08c379a000000000000000000000000000000000000000000000000000000000815260040161074b906133a0565b60405180910390fd5b8073ffffffffffffffffffffffffffffffffffffffff16610773611976565b73ffffffffffffffffffffffffffffffffffffffff1614806107a257506107a18161079c611976565b611282565b5b6107e1576040517f08c379a00000000000000000000000000000000000000000000000000000000081526004016107d890613432565b60405180910390fd5b6107eb838361197e565b505050565b6108016107fb611976565b82611a37565b610840576040517f08c379a0000000000000000000000000000000000000000000000000000000008152600401610837906134c4565b60405180910390fd5b61084b838383611acc565b505050565b61086b83838360405180602001604052806000815250610f06565b505050565b6009818154811061088057600080fd5b90600052602060002090600502016000915090508060000154908060010180546108a9906132fd565b80601f01602080910402602001604051908101604052809291908181526020018280546108d5906132fd565b80156109225780601f106108f757610100808354040283529160200191610922565b820191906000526020600020905b81548152906001019060200180831161090557829003601f168201915b505050505090806002018054610937906132fd565b80601f0160208091040260200160405190810160405280929190818152602001828054610963906132fd565b80156109b05780601f10610985576101008083540402835291602001916109b0565b820191906000526020600020905b81548152906001019060200180831161099357829003601f168201915b5050505050908060030180546109c5906132fd565b80601f01602080910402602001604051908101604052809291908181526020018280546109f1906132fd565b8015610a3e5780601f10610a1357610100808354040283529160200191610a3e565b820191906000526020600020905b815481529060010190602001808311610a2157829003601f168201915b5050505050908060040160009054906101000a900473ffffffffffffffffffffffffffffffffffffffff16905085565b600080610a7a83611dc5565b9050600073ffffffffffffffffffffffffffffffffffffffff168173ffffffffffffffffffffffffffffffffffffffff1603610aeb576040517f08c379a0000000000000000000000000000000000000000000000000000000008152600401610ae290613530565b60405180910390fd5b80915050919050565b60008073ffffffffffffffffffffffffffffffffffffffff168273ffffffffffffffffffffffffffffffffffffffff1603610b64576040517f08c379a0000000000000000000000000000000000000000000000000000000008152600401610b5b906135c2565b60405180910390fd5b600360008373ffffffffffffffffffffffffffffffffffffffff1673ffffffffffffffffffffffffffffffffffffffff168152602001908152602001600020549050919050565b610bb3611e02565b610bbd6000611e80565b565b60606009805480602002602001604051908101604052809291908181526020016000905b82821015610e2b57838290600052602060002090600502016040518060a001604052908160008201548152602001600182018054610c20906132fd565b80601f0160208091040260200160405190810160405280929190818152602001828054610c4c906132fd565b8015610c995780601f10610c6e57610100808354040283529160200191610c99565b820191906000526020600020905b815481529060010190602001808311610c7c57829003601f168201915b50505050508152602001600282018054610cb2906132fd565b80601f0160208091040260200160405190810160405280929190818152602001828054610cde906132fd565b8015610d2b5780601f10610d0057610100808354040283529160200191610d2b565b820191906000526020600020905b815481529060010190602001808311610d0e57829003601f168201915b50505050508152602001600382018054610d44906132fd565b80601f0160208091040260200160405190810160405280929190818152602001828054610d70906132fd565b8015610dbd5780601f10610d9257610100808354040283529160200191610dbd565b820191906000526020600020905b815481529060010190602001808311610da057829003601f168201915b505050505081526020016004820160009054906101000a900473ffffffffffffffffffffffffffffffffffffffff1673ffffffffffffffffffffffffffffffffffffffff1673ffffffffffffffffffffffffffffffffffffffff168152505081526020019060010190610be3565b50505050905090565b6000600660009054906101000a900473ffffffffffffffffffffffffffffffffffffffff16905090565b606060018054610e6d906132fd565b80601f0160208091040260200160405190810160405280929190818152602001828054610e99906132fd565b8015610ee65780601f10610ebb57610100808354040283529160200191610ee6565b820191906000526020600020905b815481529060010190602001808311610ec957829003601f168201915b5050505050905090565b610f02610efb611976565b8383611f46565b5050565b610f17610f11611976565b83611a37565b610f56576040517f08c379a0000000000000000000000000000000000000000000000000000000008152600401610f4d906134c4565b60405180910390fd5b610f62848484846120b2565b50505050565b6060610f738261192b565b6000610f7d61210e565b90506000815111610f9d5760405180602001604052806000815250610fc8565b80610fa784612125565b604051602001610fb892919061361e565b6040516020818303038152906040525b915050919050565b6060600a60003373ffffffffffffffffffffffffffffffffffffffff1673ffffffffffffffffffffffffffffffffffffffff168152602001908152602001600020805480602002602001604051908101604052809291908181526020016000905b8282101561127957838290600052602060002090600502016040518060a00160405290816000820154815260200160018201805461106e906132fd565b80601f016020809104026020016040519081016040528092919081815260200182805461109a906132fd565b80156110e75780601f106110bc576101008083540402835291602001916110e7565b820191906000526020600020905b8154815290600101906020018083116110ca57829003601f168201915b50505050508152602001600282018054611100906132fd565b80601f016020809104026020016040519081016040528092919081815260200182805461112c906132fd565b80156111795780601f1061114e57610100808354040283529160200191611179565b820191906000526020600020905b81548152906001019060200180831161115c57829003601f168201915b50505050508152602001600382018054611192906132fd565b80601f01602080910402602001604051908101604052809291908181526020018280546111be906132fd565b801561120b5780601f106111e05761010080835404028352916020019161120b565b820191906000526020600020905b8154815290600101906020018083116111ee57829003601f168201915b505050505081526020016004820160009054906101000a900473ffffffffffffffffffffffffffffffffffffffff1673ffffffffffffffffffffffffffffffffffffffff1673ffffffffffffffffffffffffffffffffffffffff168152505081526020019060010190611031565b50505050905090565b6000600560008473ffffffffffffffffffffffffffffffffffffffff1673ffffffffffffffffffffffffffffffffffffffff16815260200190815260200160002060008373ffffffffffffffffffffffffffffffffffffffff1673ffffffffffffffffffffffffffffffffffffffff16815260200190815260200160002060009054906101000a900460ff16905092915050565b61131e611e02565b600073ffffffffffffffffffffffffffffffffffffffff168173ffffffffffffffffffffffffffffffffffffffff160361138d576040517f08c379a0000000000000000000000000000000000000000000000000000000008152600401611384906136b4565b60405180910390fd5b61139681611e80565b50565b600b816040516113a991906136d4565b908152602001604051809103902060009054906101000a900460ff1615611405576040517f08c379a00000000000000000000000000000000000000000000000000000000081526004016113fc90613737565b60405180910390fd5b600061141160076121f3565b905061141d3382612201565b611427600761221f565b600060088360405160200161143d9291906137eb565b604051602081830303815290604052905060006040518060a001604052808481526020018581526020018681526020018381526020013373ffffffffffffffffffffffffffffffffffffffff1681525090506001600b856040516114a191906136d4565b908152602001604051809103902060006101000a81548160ff021916908315150217905550600a60003373ffffffffffffffffffffffffffffffffffffffff1673ffffffffffffffffffffffffffffffffffffffff168152602001908152602001600020819080600181540180825580915050600190039060005260206000209060050201600090919091909150600082015181600001556020820151816001019080519060200190611555929190612917565b506040820151816002019080519060200190611572929190612917565b50606082015181600301908051906020019061158f929190612917565b5060808201518160040160006101000a81548173ffffffffffffffffffffffffffffffffffffffff021916908373ffffffffffffffffffffffffffffffffffffffff1602179055505050600981908060018154018082558091505060019003906000526020600020906005020160009091909190915060008201518160000155602082015181600101908051906020019061162b929190612917565b506040820151816002019080519060200190611648929190612917565b506060820151816003019080519060200190611665929190612917565b5060808201518160040160006101000a81548173ffffffffffffffffffffffffffffffffffffffff021916908373ffffffffffffffffffffffffffffffffffffffff16021790555050505050505050565b600a60205281600052604060002081815481106116d257600080fd5b9060005260206000209060050201600091509150508060000154908060010180546116fc906132fd565b80601f0160208091040260200160405190810160405280929190818152602001828054611728906132fd565b80156117755780601f1061174a57610100808354040283529160200191611775565b820191906000526020600020905b81548152906001019060200180831161175857829003601f168201915b50505050509080600201805461178a906132fd565b80601f01602080910402602001604051908101604052809291908181526020018280546117b6906132fd565b80156118035780601f106117d857610100808354040283529160200191611803565b820191906000526020600020905b8154815290600101906020018083116117e657829003601f168201915b505050505090806003018054611818906132fd565b80601f0160208091040260200160405190810160405280929190818152602001828054611844906132fd565b80156118915780601f1061186657610100808354040283529160200191611891565b820191906000526020600020905b81548152906001019060200180831161187457829003601f168201915b5050505050908060040160009054906101000a900473ffffffffffffffffffffffffffffffffffffffff16905085565b60007f01ffc9a7000000000000000000000000000000000000000000000000000000007bffffffffffffffffffffffffffffffffffffffffffffffffffffffff1916827bffffffffffffffffffffffffffffffffffffffffffffffffffffffff1916149050919050565b61193481612235565b611973576040517f08c379a000000000000000000000000000000000000000000000000000000000815260040161196a90613530565b60405180910390fd5b50565b600033905090565b816004600083815260200190815260200160002060006101000a81548173ffffffffffffffffffffffffffffffffffffffff021916908373ffffffffffffffffffffffffffffffffffffffff160217905550808273ffffffffffffffffffffffffffffffffffffffff166119f183610a6e565b73ffffffffffffffffffffffffffffffffffffffff167f8c5be1e5ebec7d5bd14f71427d1e84f3dd0314c0f7b2291e5b200ac8c7c3b92560405160405180910390a45050565b600080611a4383610a6e565b90508073ffffffffffffffffffffffffffffffffffffffff168473ffffffffffffffffffffffffffffffffffffffff161480611a855750611a848185611282565b5b80611ac357508373ffffffffffffffffffffffffffffffffffffffff16611aab84610693565b73ffffffffffffffffffffffffffffffffffffffff16145b91505092915050565b8273ffffffffffffffffffffffffffffffffffffffff16611aec82610a6e565b73ffffffffffffffffffffffffffffffffffffffff1614611b42576040517f08c379a0000000000000000000000000000000000000000000000000000000008152600401611b3990613881565b60405180910390fd5b600073ffffffffffffffffffffffffffffffffffffffff168273ffffffffffffffffffffffffffffffffffffffff1603611bb1576040517f08c379a0000000000000000000000000000000000000000000000000000000008152600401611ba890613913565b60405180910390fd5b611bbe8383836001612276565b8273ffffffffffffffffffffffffffffffffffffffff16611bde82610a6e565b73ffffffffffffffffffffffffffffffffffffffff1614611c34576040517f08c379a0000000000000000000000000000000000000000000000000000000008152600401611c2b90613881565b60405180910390fd5b6004600082815260200190815260200160002060006101000a81549073ffffffffffffffffffffffffffffffffffffffff02191690556001600360008573ffffffffffffffffffffffffffffffffffffffff1673ffffffffffffffffffffffffffffffffffffffff168152602001908152602001600020600082825403925050819055506001600360008473ffffffffffffffffffffffffffffffffffffffff1673ffffffffffffffffffffffffffffffffffffffff16815260200190815260200160002060008282540192505081905550816002600083815260200190815260200160002060006101000a81548173ffffffffffffffffffffffffffffffffffffffff021916908373ffffffffffffffffffffffffffffffffffffffff160217905550808273ffffffffffffffffffffffffffffffffffffffff168473ffffffffffffffffffffffffffffffffffffffff167fddf252ad1be2c89b69c2b068fc378daa952ba7f163c4a11628f55a4df523b3ef60405160405180910390a4611dc0838383600161239c565b505050565b60006002600083815260200190815260200160002060009054906101000a900473ffffffffffffffffffffffffffffffffffffffff169050919050565b611e0a611976565b73ffffffffffffffffffffffffffffffffffffffff16611e28610e34565b73ffffffffffffffffffffffffffffffffffffffff1614611e7e576040517f08c379a0000000000000000000000000000000000000000000000000000000008152600401611e759061397f565b60405180910390fd5b565b6000600660009054906101000a900473ffffffffffffffffffffffffffffffffffffffff16905081600660006101000a81548173ffffffffffffffffffffffffffffffffffffffff021916908373ffffffffffffffffffffffffffffffffffffffff1602179055508173ffffffffffffffffffffffffffffffffffffffff168173ffffffffffffffffffffffffffffffffffffffff167f8be0079c531659141344cd1fd0a4f28419497f9722a3daafe3b4186f6b6457e060405160405180910390a35050565b8173ffffffffffffffffffffffffffffffffffffffff168373ffffffffffffffffffffffffffffffffffffffff1603611fb4576040517f08c379a0000000000000000000000000000000000000000000000000000000008152600401611fab906139eb565b60405180910390fd5b80600560008573ffffffffffffffffffffffffffffffffffffffff1673ffffffffffffffffffffffffffffffffffffffff16815260200190815260200160002060008473ffffffffffffffffffffffffffffffffffffffff1673ffffffffffffffffffffffffffffffffffffffff16815260200190815260200160002060006101000a81548160ff0219169083151502179055508173ffffffffffffffffffffffffffffffffffffffff168373ffffffffffffffffffffffffffffffffffffffff167f17307eab39ab6107e8899845ad3d59bd9653f200f220920489ca2b5937696c31836040516120a59190612a6e565b60405180910390a3505050565b6120bd848484611acc565b6120c9848484846123a2565b612108576040517f08c379a00000000000000000000000000000000000000000000000000000000081526004016120ff90613a7d565b60405180910390fd5b50505050565b606060405180602001604052806000815250905090565b60606000600161213484612529565b01905060008167ffffffffffffffff81111561215357612152612fc7565b5b6040519080825280601f01601f1916602001820160405280156121855781602001600182028036833780820191505090505b509050600082602001820190505b6001156121e8578080600190039150507f3031323334353637383961626364656600000000000000000000000000000000600a86061a8153600a85816121dc576121db613a9d565b5b04945060008503612193575b819350505050919050565b600081600001549050919050565b61221b82826040518060200160405280600081525061267c565b5050565b6001816000016000828254019250508190555050565b60008073ffffffffffffffffffffffffffffffffffffffff1661225783611dc5565b73ffffffffffffffffffffffffffffffffffffffff1614159050919050565b600181111561239657600073ffffffffffffffffffffffffffffffffffffffff168473ffffffffffffffffffffffffffffffffffffffff161461230a5780600360008673ffffffffffffffffffffffffffffffffffffffff1673ffffffffffffffffffffffffffffffffffffffff16815260200190815260200160002060008282546123029190613afb565b925050819055505b600073ffffffffffffffffffffffffffffffffffffffff168373ffffffffffffffffffffffffffffffffffffffff16146123955780600360008573ffffffffffffffffffffffffffffffffffffffff1673ffffffffffffffffffffffffffffffffffffffff168152602001908152602001600020600082825461238d9190613b2f565b925050819055505b5b50505050565b50505050565b60006123c38473ffffffffffffffffffffffffffffffffffffffff166126d7565b1561251c578373ffffffffffffffffffffffffffffffffffffffff1663150b7a026123ec611976565b8786866040518563ffffffff1660e01b815260040161240e9493929190613bda565b6020604051808303816000875af192505050801561244a57506040513d601f19601f820116820180604052508101906124479190613c3b565b60015b6124cc573d806000811461247a576040519150601f19603f3d011682016040523d82523d6000602084013e61247f565b606091505b5060008151036124c4576040517f08c379a00000000000000000000000000000000000000000000000000000000081526004016124bb90613a7d565b60405180910390fd5b805181602001fd5b63150b7a0260e01b7bffffffffffffffffffffffffffffffffffffffffffffffffffffffff1916817bffffffffffffffffffffffffffffffffffffffffffffffffffffffff191614915050612521565b600190505b949350505050565b600080600090507a184f03e93ff9f4daa797ed6e38ed64bf6a1f0100000000000000008310612587577a184f03e93ff9f4daa797ed6e38ed64bf6a1f010000000000000000838161257d5761257c613a9d565b5b0492506040810190505b6d04ee2d6d415b85acef810000000083106125c4576d04ee2d6d415b85acef810000000083816125ba576125b9613a9d565b5b0492506020810190505b662386f26fc1000083106125f357662386f26fc1000083816125e9576125e8613a9d565b5b0492506010810190505b6305f5e100831061261c576305f5e100838161261257612611613a9d565b5b0492506008810190505b612710831061264157612710838161263757612636613a9d565b5b0492506004810190505b60648310612664576064838161265a57612659613a9d565b5b0492506002810190505b600a8310612673576001810190505b80915050919050565b61268683836126fa565b61269360008484846123a2565b6126d2576040517f08c379a00000000000000000000000000000000000000000000000000000000081526004016126c990613a7d565b60405180910390fd5b505050565b6000808273ffffffffffffffffffffffffffffffffffffffff163b119050919050565b600073ffffffffffffffffffffffffffffffffffffffff168273ffffffffffffffffffffffffffffffffffffffff1603612769576040517f08c379a000000000000000000000000000000000000000000000000000000000815260040161276090613cb4565b60405180910390fd5b61277281612235565b156127b2576040517f08c379a00000000000000000000000000000000000000000000000000000000081526004016127a990613d20565b60405180910390fd5b6127c0600083836001612276565b6127c981612235565b15612809576040517f08c379a000000000000000000000000000000000000000000000000000000000815260040161280090613d20565b60405180910390fd5b6001600360008473ffffffffffffffffffffffffffffffffffffffff1673ffffffffffffffffffffffffffffffffffffffff16815260200190815260200160002060008282540192505081905550816002600083815260200190815260200160002060006101000a81548173ffffffffffffffffffffffffffffffffffffffff021916908373ffffffffffffffffffffffffffffffffffffffff160217905550808273ffffffffffffffffffffffffffffffffffffffff16600073ffffffffffffffffffffffffffffffffffffffff167fddf252ad1be2c89b69c2b068fc378daa952ba7f163c4a11628f55a4df523b3ef60405160405180910390a461291360008383600161239c565b5050565b828054612923906132fd565b90600052602060002090601f016020900481019282612945576000855561298c565b82601f1061295e57805160ff191683800117855561298c565b8280016001018555821561298c579182015b8281111561298b578251825591602001919060010190612970565b5b509050612999919061299d565b5090565b5b808211156129b657600081600090555060010161299e565b5090565b6000604051905090565b600080fd5b600080fd5b60007fffffffff0000000000000000000000000000000000000000000000000000000082169050919050565b612a03816129ce565b8114612a0e57600080fd5b50565b600081359050612a20816129fa565b92915050565b600060208284031215612a3c57612a3b6129c4565b5b6000612a4a84828501612a11565b91505092915050565b60008115159050919050565b612a6881612a53565b82525050565b6000602082019050612a836000830184612a5f565b92915050565b600081519050919050565b600082825260208201905092915050565b60005b83811015612ac3578082015181840152602081019050612aa8565b83811115612ad2576000848401525b50505050565b6000601f19601f8301169050919050565b6000612af482612a89565b612afe8185612a94565b9350612b0e818560208601612aa5565b612b1781612ad8565b840191505092915050565b60006020820190508181036000830152612b3c8184612ae9565b905092915050565b6000819050919050565b612b5781612b44565b8114612b6257600080fd5b50565b600081359050612b7481612b4e565b92915050565b600060208284031215612b9057612b8f6129c4565b5b6000612b9e84828501612b65565b91505092915050565b600073ffffffffffffffffffffffffffffffffffffffff82169050919050565b6000612bd282612ba7565b9050919050565b612be281612bc7565b82525050565b6000602082019050612bfd6000830184612bd9565b92915050565b612c0c81612bc7565b8114612c1757600080fd5b50565b600081359050612c2981612c03565b92915050565b60008060408385031215612c4657612c456129c4565b5b6000612c5485828601612c1a565b9250506020612c6585828601612b65565b9150509250929050565b600080600060608486031215612c8857612c876129c4565b5b6000612c9686828701612c1a565b9350506020612ca786828701612c1a565b9250506040612cb886828701612b65565b9150509250925092565b612ccb81612b44565b82525050565b600060a082019050612ce66000830188612cc2565b8181036020830152612cf88187612ae9565b90508181036040830152612d0c8186612ae9565b90508181036060830152612d208185612ae9565b9050612d2f6080830184612bd9565b9695505050505050565b600060208284031215612d4f57612d4e6129c4565b5b6000612d5d84828501612c1a565b91505092915050565b6000602082019050612d7b6000830184612cc2565b92915050565b600081519050919050565b600082825260208201905092915050565b6000819050602082019050919050565b612db681612b44565b82525050565b600082825260208201905092915050565b6000612dd882612a89565b612de28185612dbc565b9350612df2818560208601612aa5565b612dfb81612ad8565b840191505092915050565b612e0f81612bc7565b82525050565b600060a083016000830151612e2d6000860182612dad565b5060208301518482036020860152612e458282612dcd565b91505060408301518482036040860152612e5f8282612dcd565b91505060608301518482036060860152612e798282612dcd565b9150506080830151612e8e6080860182612e06565b508091505092915050565b6000612ea58383612e15565b905092915050565b6000602082019050919050565b6000612ec582612d81565b612ecf8185612d8c565b935083602082028501612ee185612d9d565b8060005b85811015612f1d5784840389528151612efe8582612e99565b9450612f0983612ead565b925060208a01995050600181019050612ee5565b50829750879550505050505092915050565b60006020820190508181036000830152612f498184612eba565b905092915050565b612f5a81612a53565b8114612f6557600080fd5b50565b600081359050612f7781612f51565b92915050565b60008060408385031215612f9457612f936129c4565b5b6000612fa285828601612c1a565b9250506020612fb385828601612f68565b9150509250929050565b600080fd5b600080fd5b7f4e487b7100000000000000000000000000000000000000000000000000000000600052604160045260246000fd5b612fff82612ad8565b810181811067ffffffffffffffff8211171561301e5761301d612fc7565b5b80604052505050565b60006130316129ba565b905061303d8282612ff6565b919050565b600067ffffffffffffffff82111561305d5761305c612fc7565b5b61306682612ad8565b9050602081019050919050565b82818337600083830152505050565b600061309561309084613042565b613027565b9050828152602081018484840111156130b1576130b0612fc2565b5b6130bc848285613073565b509392505050565b600082601f8301126130d9576130d8612fbd565b5b81356130e9848260208601613082565b91505092915050565b6000806000806080858703121561310c5761310b6129c4565b5b600061311a87828801612c1a565b945050602061312b87828801612c1a565b935050604061313c87828801612b65565b925050606085013567ffffffffffffffff81111561315d5761315c6129c9565b5b613169878288016130c4565b91505092959194509250565b6000806040838503121561318c5761318b6129c4565b5b600061319a85828601612c1a565b92505060206131ab85828601612c1a565b9150509250929050565b600067ffffffffffffffff8211156131d0576131cf612fc7565b5b6131d982612ad8565b9050602081019050919050565b60006131f96131f4846131b5565b613027565b90508281526020810184848401111561321557613214612fc2565b5b613220848285613073565b509392505050565b600082601f83011261323d5761323c612fbd565b5b813561324d8482602086016131e6565b91505092915050565b6000806040838503121561326d5761326c6129c4565b5b600083013567ffffffffffffffff81111561328b5761328a6129c9565b5b61329785828601613228565b925050602083013567ffffffffffffffff8111156132b8576132b76129c9565b5b6132c485828601613228565b9150509250929050565b7f4e487b7100000000000000000000000000000000000000000000000000000000600052602260045260246000fd5b6000600282049050600182168061331557607f821691505b602082108103613328576133276132ce565b5b50919050565b7f4552433732313a20617070726f76616c20746f2063757272656e74206f776e6560008201527f7200000000000000000000000000000000000000000000000000000000000000602082015250565b600061338a602183612a94565b91506133958261332e565b604082019050919050565b600060208201905081810360008301526133b98161337d565b9050919050565b7f4552433732313a20617070726f76652063616c6c6572206973206e6f7420746f60008201527f6b656e206f776e6572206f7220617070726f76656420666f7220616c6c000000602082015250565b600061341c603d83612a94565b9150613427826133c0565b604082019050919050565b6000602082019050818103600083015261344b8161340f565b9050919050565b7f4552433732313a2063616c6c6572206973206e6f7420746f6b656e206f776e6560008201527f72206f7220617070726f76656400000000000000000000000000000000000000602082015250565b60006134ae602d83612a94565b91506134b982613452565b604082019050919050565b600060208201905081810360008301526134dd816134a1565b9050919050565b7f4552433732313a20696e76616c696420746f6b656e2049440000000000000000600082015250565b600061351a601883612a94565b9150613525826134e4565b602082019050919050565b600060208201905081810360008301526135498161350d565b9050919050565b7f4552433732313a2061646472657373207a65726f206973206e6f74206120766160008201527f6c6964206f776e65720000000000000000000000000000000000000000000000602082015250565b60006135ac602983612a94565b91506135b782613550565b604082019050919050565b600060208201905081810360008301526135db8161359f565b9050919050565b600081905092915050565b60006135f882612a89565b61360281856135e2565b9350613612818560208601612aa5565b80840191505092915050565b600061362a82856135ed565b915061363682846135ed565b91508190509392505050565b7f4f776e61626c653a206e6577206f776e657220697320746865207a65726f206160008201527f6464726573730000000000000000000000000000000000000000000000000000602082015250565b600061369e602683612a94565b91506136a982613642565b604082019050919050565b600060208201905081810360008301526136cd81613691565b9050919050565b60006136e082846135ed565b915081905092915050565b7f5468697320746f6b656e20657869737421000000000000000000000000000000600082015250565b6000613721601183612a94565b915061372c826136eb565b602082019050919050565b6000602082019050818103600083015261375081613714565b9050919050565b60008190508160005260206000209050919050565b60008154613779816132fd565b61378381866135e2565b9450600182166000811461379e57600181146137af576137e2565b60ff198316865281860193506137e2565b6137b885613757565b60005b838110156137da578154818901526001820191506020810190506137bb565b838801955050505b50505092915050565b60006137f7828561376c565b915061380382846135ed565b91508190509392505050565b7f4552433732313a207472616e736665722066726f6d20696e636f72726563742060008201527f6f776e6572000000000000000000000000000000000000000000000000000000602082015250565b600061386b602583612a94565b91506138768261380f565b604082019050919050565b6000602082019050818103600083015261389a8161385e565b9050919050565b7f4552433732313a207472616e7366657220746f20746865207a65726f2061646460008201527f7265737300000000000000000000000000000000000000000000000000000000602082015250565b60006138fd602483612a94565b9150613908826138a1565b604082019050919050565b6000602082019050818103600083015261392c816138f0565b9050919050565b7f4f776e61626c653a2063616c6c6572206973206e6f7420746865206f776e6572600082015250565b6000613969602083612a94565b915061397482613933565b602082019050919050565b600060208201905081810360008301526139988161395c565b9050919050565b7f4552433732313a20617070726f766520746f2063616c6c657200000000000000600082015250565b60006139d5601983612a94565b91506139e08261399f565b602082019050919050565b60006020820190508181036000830152613a04816139c8565b9050919050565b7f4552433732313a207472616e7366657220746f206e6f6e20455243373231526560008201527f63656976657220696d706c656d656e7465720000000000000000000000000000602082015250565b6000613a67603283612a94565b9150613a7282613a0b565b604082019050919050565b60006020820190508181036000830152613a9681613a5a565b9050919050565b7f4e487b7100000000000000000000000000000000000000000000000000000000600052601260045260246000fd5b7f4e487b7100000000000000000000000000000000000000000000000000000000600052601160045260246000fd5b6000613b0682612b44565b9150613b1183612b44565b925082821015613b2457613b23613acc565b5b828203905092915050565b6000613b3a82612b44565b9150613b4583612b44565b9250827fffffffffffffffffffffffffffffffffffffffffffffffffffffffffffffffff03821115613b7a57613b79613acc565b5b828201905092915050565b600081519050919050565b600082825260208201905092915050565b6000613bac82613b85565b613bb68185613b90565b9350613bc6818560208601612aa5565b613bcf81612ad8565b840191505092915050565b6000608082019050613bef6000830187612bd9565b613bfc6020830186612bd9565b613c096040830185612cc2565b8181036060830152613c1b8184613ba1565b905095945050505050565b600081519050613c35816129fa565b92915050565b600060208284031215613c5157613c506129c4565b5b6000613c5f84828501613c26565b91505092915050565b7f4552433732313a206d696e7420746f20746865207a65726f2061646472657373600082015250565b6000613c9e602083612a94565b9150613ca982613c68565b602082019050919050565b60006020820190508181036000830152613ccd81613c91565b9050919050565b7f4552433732313a20746f6b656e20616c7265616479206d696e74656400000000600082015250565b6000613d0a601c83612a94565b9150613d1582613cd4565b602082019050919050565b60006020820190508181036000830152613d3981613cfd565b905091905056fea2646970667358221220f79303e4e4175e002e8fd231fb31fd672bb7b5ac11679cf1f3a95ffa971c1ee764736f6c634300080d0033",
  "immutableReferences": {},
  "source": "//SPDX-License-Identifier: MIT\npragma solidity ^0.8.13;\n\nimport \"@openzeppelin/contracts/utils/Counters.sol\";\nimport \"@openzeppelin/contracts/access/Ownable.sol\";\nimport \"@openzeppelin/contracts/utils/math/SafeMath.sol\";\nimport \"@openzeppelin/contracts/token/ERC721/ERC721.sol\";\n\ncontract ClimateNFT is ERC721, Ownable {\n    using SafeMath for uint256;\n    using Counters for Counters.Counter;\n\n    constructor(string memory baseUrl, string memory name, string memory symbol)\n        ERC721(name, symbol)\n    {\n        _setBaseUrl(baseUrl);\n    }\n\n    Counters.Counter private _tokenIds;\n\n    string _baseUrl;\n\n    struct CToken {\n        uint256 tokenId;\n        string ipfsHash;\n        string tokenName;\n        string tokenUrl;\n        address owner;\n    }\n\n    CToken[] public allTokens;\n\n    mapping(address => CToken[]) public userTokens;\n\n    mapping(string => bool) private mintedToken;\n\n    function _setBaseUrl(string memory baseUrl) private onlyOwner {\n        _baseUrl = baseUrl;\n    }\n\n    function getAllToken() public view returns (CToken[] memory) {\n        return allTokens;\n    }\n\n    function getUserToken() public view returns (CToken[] memory) {\n        return userTokens[msg.sender];\n    }\n\n    // Mint new token and update the list\n    function mintCToken(\n        string memory _tokenName,\n        string memory _ipfsHash\n    ) public payable {\n        require(!mintedToken[_ipfsHash], \"This token exist!\");\n\n        uint256 _tokenId = _tokenIds.current();\n        _safeMint(msg.sender, _tokenId);\n        _tokenIds.increment();\n\n        string memory _tokenUrl = string(abi.encodePacked(_baseUrl, _ipfsHash));\n\n        CToken memory token = CToken({\n            tokenId: _tokenId,\n            ipfsHash: _ipfsHash,\n            tokenName: _tokenName,\n            tokenUrl: _tokenUrl,\n            owner: msg.sender\n        });\n\n        mintedToken[_ipfsHash] = true;\n        userTokens[msg.sender].push(token);\n        allTokens.push(token);\n    }\n}\n",
  "sourcePath": "/home/kennedy/Documents/Dev-Stuff/Group-C-Project/Ethereum/nft-for-climate-change/contracts/ClimateNTF.sol",
  "compiler": {
    "name": "solc",
    "version": "0.8.13+commit.abaa5c0e.Emscripten.clang"
  },
  "schemaVersion": "3.4.11",
  "updatedAt": "2022-12-10T15:36:44.682Z",
  "networkType": "ethereum",
  "devdoc": {
    "kind": "dev",
    "methods": {
      "approve(address,uint256)": {
        "details": "See {IERC721-approve}."
      },
      "balanceOf(address)": {
        "details": "See {IERC721-balanceOf}."
      },
      "getApproved(uint256)": {
        "details": "See {IERC721-getApproved}."
      },
      "isApprovedForAll(address,address)": {
        "details": "See {IERC721-isApprovedForAll}."
      },
      "name()": {
        "details": "See {IERC721Metadata-name}."
      },
      "owner()": {
        "details": "Returns the address of the current owner."
      },
      "ownerOf(uint256)": {
        "details": "See {IERC721-ownerOf}."
      },
      "renounceOwnership()": {
        "details": "Leaves the contract without owner. It will not be possible to call `onlyOwner` functions anymore. Can only be called by the current owner. NOTE: Renouncing ownership will leave the contract without an owner, thereby removing any functionality that is only available to the owner."
      },
      "safeTransferFrom(address,address,uint256)": {
        "details": "See {IERC721-safeTransferFrom}."
      },
      "safeTransferFrom(address,address,uint256,bytes)": {
        "details": "See {IERC721-safeTransferFrom}."
      },
      "setApprovalForAll(address,bool)": {
        "details": "See {IERC721-setApprovalForAll}."
      },
      "supportsInterface(bytes4)": {
        "details": "See {IERC165-supportsInterface}."
      },
      "symbol()": {
        "details": "See {IERC721Metadata-symbol}."
      },
      "tokenURI(uint256)": {
        "details": "See {IERC721Metadata-tokenURI}."
      },
      "transferFrom(address,address,uint256)": {
        "details": "See {IERC721-transferFrom}."
      },
      "transferOwnership(address)": {
        "details": "Transfers ownership of the contract to a new account (`newOwner`). Can only be called by the current owner."
      }
    },
    "version": 1
  },
  "userdoc": {
    "kind": "user",
    "methods": {},
    "version": 1
  }
}