{
  "contractName": "ClimateToken",
  "abi": [
    {
      "inputs": [
        {
          "internalType": "string",
          "name": "baseURI",
          "type": "string"
        },
        {
          "internalType": "string",
          "name": "name",
          "type": "string"
        },
        {
          "internalType": "string",
          "name": "symbol",
          "type": "string"
        }
      ],
      "stateMutability": "nonpayable",
      "type": "constructor"
    },
    {
      "anonymous": false,
      "inputs": [
        {
          "indexed": true,
          "internalType": "address",
          "name": "owner",
          "type": "address"
        },
        {
          "indexed": true,
          "internalType": "address",
          "name": "approved",
          "type": "address"
        },
        {
          "indexed": true,
          "internalType": "uint256",
          "name": "tokenId",
          "type": "uint256"
        }
      ],
      "name": "Approval",
      "type": "event"
    },
    {
      "anonymous": false,
      "inputs": [
        {
          "indexed": true,
          "internalType": "address",
          "name": "owner",
          "type": "address"
        },
        {
          "indexed": true,
          "internalType": "address",
          "name": "operator",
          "type": "address"
        },
        {
          "indexed": false,
          "internalType": "bool",
          "name": "approved",
          "type": "bool"
        }
      ],
      "name": "ApprovalForAll",
      "type": "event"
    },
    {
      "anonymous": false,
      "inputs": [
        {
          "indexed": true,
          "internalType": "address",
          "name": "previousOwner",
          "type": "address"
        },
        {
          "indexed": true,
          "internalType": "address",
          "name": "newOwner",
          "type": "address"
        }
      ],
      "name": "OwnershipTransferred",
      "type": "event"
    },
    {
      "anonymous": false,
      "inputs": [
        {
          "indexed": true,
          "internalType": "address",
          "name": "from",
          "type": "address"
        },
        {
          "indexed": true,
          "internalType": "address",
          "name": "to",
          "type": "address"
        },
        {
          "indexed": true,
          "internalType": "uint256",
          "name": "tokenId",
          "type": "uint256"
        }
      ],
      "name": "Transfer",
      "type": "event"
    },
    {
      "inputs": [
        {
          "internalType": "uint256",
          "name": "",
          "type": "uint256"
        }
      ],
      "name": "allTokens",
      "outputs": [
        {
          "internalType": "uint256",
          "name": "tokenId",
          "type": "uint256"
        },
        {
          "internalType": "string",
          "name": "tokenName",
          "type": "string"
        },
        {
          "internalType": "address",
          "name": "owner",
          "type": "address"
        }
      ],
      "stateMutability": "view",
      "type": "function"
    },
    {
      "inputs": [
        {
          "internalType": "address",
          "name": "to",
          "type": "address"
        },
        {
          "internalType": "uint256",
          "name": "tokenId",
          "type": "uint256"
        }
      ],
      "name": "approve",
      "outputs": [],
      "stateMutability": "nonpayable",
      "type": "function"
    },
    {
      "inputs": [
        {
          "internalType": "address",
          "name": "owner",
          "type": "address"
        }
      ],
      "name": "balanceOf",
      "outputs": [
        {
          "internalType": "uint256",
          "name": "",
          "type": "uint256"
        }
      ],
      "stateMutability": "view",
      "type": "function"
    },
    {
      "inputs": [],
      "name": "baseTokenURI",
      "outputs": [
        {
          "internalType": "string",
          "name": "",
          "type": "string"
        }
      ],
      "stateMutability": "view",
      "type": "function"
    },
    {
      "inputs": [
        {
          "internalType": "uint256",
          "name": "tokenId",
          "type": "uint256"
        }
      ],
      "name": "getApproved",
      "outputs": [
        {
          "internalType": "address",
          "name": "",
          "type": "address"
        }
      ],
      "stateMutability": "view",
      "type": "function"
    },
    {
      "inputs": [
        {
          "internalType": "address",
          "name": "owner",
          "type": "address"
        },
        {
          "internalType": "address",
          "name": "operator",
          "type": "address"
        }
      ],
      "name": "isApprovedForAll",
      "outputs": [
        {
          "internalType": "bool",
          "name": "",
          "type": "bool"
        }
      ],
      "stateMutability": "view",
      "type": "function"
    },
    {
      "inputs": [],
      "name": "name",
      "outputs": [
        {
          "internalType": "string",
          "name": "",
          "type": "string"
        }
      ],
      "stateMutability": "view",
      "type": "function"
    },
    {
      "inputs": [],
      "name": "owner",
      "outputs": [
        {
          "internalType": "address",
          "name": "",
          "type": "address"
        }
      ],
      "stateMutability": "view",
      "type": "function"
    },
    {
      "inputs": [
        {
          "internalType": "uint256",
          "name": "tokenId",
          "type": "uint256"
        }
      ],
      "name": "ownerOf",
      "outputs": [
        {
          "internalType": "address",
          "name": "",
          "type": "address"
        }
      ],
      "stateMutability": "view",
      "type": "function"
    },
    {
      "inputs": [],
      "name": "renounceOwnership",
      "outputs": [],
      "stateMutability": "nonpayable",
      "type": "function"
    },
    {
      "inputs": [
        {
          "internalType": "address",
          "name": "from",
          "type": "address"
        },
        {
          "internalType": "address",
          "name": "to",
          "type": "address"
        },
        {
          "internalType": "uint256",
          "name": "tokenId",
          "type": "uint256"
        }
      ],
      "name": "safeTransferFrom",
      "outputs": [],
      "stateMutability": "nonpayable",
      "type": "function"
    },
    {
      "inputs": [
        {
          "internalType": "address",
          "name": "from",
          "type": "address"
        },
        {
          "internalType": "address",
          "name": "to",
          "type": "address"
        },
        {
          "internalType": "uint256",
          "name": "tokenId",
          "type": "uint256"
        },
        {
          "internalType": "bytes",
          "name": "data",
          "type": "bytes"
        }
      ],
      "name": "safeTransferFrom",
      "outputs": [],
      "stateMutability": "nonpayable",
      "type": "function"
    },
    {
      "inputs": [
        {
          "internalType": "address",
          "name": "operator",
          "type": "address"
        },
        {
          "internalType": "bool",
          "name": "approved",
          "type": "bool"
        }
      ],
      "name": "setApprovalForAll",
      "outputs": [],
      "stateMutability": "nonpayable",
      "type": "function"
    },
    {
      "inputs": [
        {
          "internalType": "bytes4",
          "name": "interfaceId",
          "type": "bytes4"
        }
      ],
      "name": "supportsInterface",
      "outputs": [
        {
          "internalType": "bool",
          "name": "",
          "type": "bool"
        }
      ],
      "stateMutability": "view",
      "type": "function"
    },
    {
      "inputs": [],
      "name": "symbol",
      "outputs": [
        {
          "internalType": "string",
          "name": "",
          "type": "string"
        }
      ],
      "stateMutability": "view",
      "type": "function"
    },
    {
      "inputs": [
        {
          "internalType": "uint256",
          "name": "tokenId",
          "type": "uint256"
        }
      ],
      "name": "tokenURI",
      "outputs": [
        {
          "internalType": "string",
          "name": "",
          "type": "string"
        }
      ],
      "stateMutability": "view",
      "type": "function"
    },
    {
      "inputs": [
        {
          "internalType": "address",
          "name": "from",
          "type": "address"
        },
        {
          "internalType": "address",
          "name": "to",
          "type": "address"
        },
        {
          "internalType": "uint256",
          "name": "tokenId",
          "type": "uint256"
        }
      ],
      "name": "transferFrom",
      "outputs": [],
      "stateMutability": "nonpayable",
      "type": "function"
    },
    {
      "inputs": [
        {
          "internalType": "address",
          "name": "newOwner",
          "type": "address"
        }
      ],
      "name": "transferOwnership",
      "outputs": [],
      "stateMutability": "nonpayable",
      "type": "function"
    },
    {
      "inputs": [
        {
          "internalType": "address",
          "name": "",
          "type": "address"
        },
        {
          "internalType": "uint256",
          "name": "",
          "type": "uint256"
        }
      ],
      "name": "userTokens",
      "outputs": [
        {
          "internalType": "uint256",
          "name": "tokenId",
          "type": "uint256"
        },
        {
          "internalType": "string",
          "name": "tokenName",
          "type": "string"
        },
        {
          "internalType": "address",
          "name": "owner",
          "type": "address"
        }
      ],
      "stateMutability": "view",
      "type": "function"
    },
    {
      "inputs": [
        {
          "internalType": "string",
          "name": "_baseTokenURI",
          "type": "string"
        }
      ],
      "name": "setBaseURI",
      "outputs": [],
      "stateMutability": "nonpayable",
      "type": "function"
    },
    {
      "inputs": [],
      "name": "getAllToken",
      "outputs": [
        {
          "components": [
            {
              "internalType": "uint256",
              "name": "tokenId",
              "type": "uint256"
            },
            {
              "internalType": "string",
              "name": "tokenName",
              "type": "string"
            },
            {
              "internalType": "address",
              "name": "owner",
              "type": "address"
            }
          ],
          "internalType": "struct ClimateToken.CToken[]",
          "name": "",
          "type": "tuple[]"
        }
      ],
      "stateMutability": "view",
      "type": "function"
    },
    {
      "inputs": [],
      "name": "getUserToken",
      "outputs": [
        {
          "components": [
            {
              "internalType": "uint256",
              "name": "tokenId",
              "type": "uint256"
            },
            {
              "internalType": "string",
              "name": "tokenName",
              "type": "string"
            },
            {
              "internalType": "address",
              "name": "owner",
              "type": "address"
            }
          ],
          "internalType": "struct ClimateToken.CToken[]",
          "name": "",
          "type": "tuple[]"
        }
      ],
      "stateMutability": "view",
      "type": "function"
    },
    {
      "inputs": [
        {
          "internalType": "string",
          "name": "_tokenName",
          "type": "string"
        }
      ],
      "name": "mintCToken",
      "outputs": [],
      "stateMutability": "payable",
      "type": "function"
    }
  ],
  "bytecode": "0x60806040523480156200001157600080fd5b5060405162003d5138038062003d518339818101604052810190620000379190620004a9565b81818160009080519060200190620000519291906200025c565b5080600190805190602001906200006a9291906200025c565b5050506200008d62000081620000a760201b60201c565b620000af60201b60201c565b6200009e836200017560201b60201c565b50505062000649565b600033905090565b6000600660009054906101000a900473ffffffffffffffffffffffffffffffffffffffff16905081600660006101000a81548173ffffffffffffffffffffffffffffffffffffffff021916908373ffffffffffffffffffffffffffffffffffffffff1602179055508173ffffffffffffffffffffffffffffffffffffffff168173ffffffffffffffffffffffffffffffffffffffff167f8be0079c531659141344cd1fd0a4f28419497f9722a3daafe3b4186f6b6457e060405160405180910390a35050565b62000185620001a160201b60201c565b80600890805190602001906200019d9291906200025c565b5050565b620001b1620000a760201b60201c565b73ffffffffffffffffffffffffffffffffffffffff16620001d76200023260201b60201c565b73ffffffffffffffffffffffffffffffffffffffff161462000230576040517f08c379a00000000000000000000000000000000000000000000000000000000081526004016200022790620005c3565b60405180910390fd5b565b6000600660009054906101000a900473ffffffffffffffffffffffffffffffffffffffff16905090565b8280546200026a9062000614565b90600052602060002090601f0160209004810192826200028e5760008555620002da565b82601f10620002a957805160ff1916838001178555620002da565b82800160010185558215620002da579182015b82811115620002d9578251825591602001919060010190620002bc565b5b509050620002e99190620002ed565b5090565b5b8082111562000308576000816000905550600101620002ee565b5090565b6000604051905090565b600080fd5b600080fd5b600080fd5b600080fd5b6000601f19601f8301169050919050565b7f4e487b7100000000000000000000000000000000000000000000000000000000600052604160045260246000fd5b62000375826200032a565b810181811067ffffffffffffffff821117156200039757620003966200033b565b5b80604052505050565b6000620003ac6200030c565b9050620003ba82826200036a565b919050565b600067ffffffffffffffff821115620003dd57620003dc6200033b565b5b620003e8826200032a565b9050602081019050919050565b60005b8381101562000415578082015181840152602081019050620003f8565b8381111562000425576000848401525b50505050565b6000620004426200043c84620003bf565b620003a0565b90508281526020810184848401111562000461576200046062000325565b5b6200046e848285620003f5565b509392505050565b600082601f8301126200048e576200048d62000320565b5b8151620004a08482602086016200042b565b91505092915050565b600080600060608486031215620004c557620004c462000316565b5b600084015167ffffffffffffffff811115620004e657620004e56200031b565b5b620004f48682870162000476565b935050602084015167ffffffffffffffff8111156200051857620005176200031b565b5b620005268682870162000476565b925050604084015167ffffffffffffffff8111156200054a57620005496200031b565b5b620005588682870162000476565b9150509250925092565b600082825260208201905092915050565b7f4f776e61626c653a2063616c6c6572206973206e6f7420746865206f776e6572600082015250565b6000620005ab60208362000562565b9150620005b88262000573565b602082019050919050565b60006020820190508181036000830152620005de816200059c565b9050919050565b7f4e487b7100000000000000000000000000000000000000000000000000000000600052602260045260246000fd5b600060028204905060018216806200062d57607f821691505b602082108103620006435762000642620005e5565b5b50919050565b6136f880620006596000396000f3fe6080604052600436106101405760003560e01c8063715018a6116100b6578063c87b56dd1161006f578063c87b56dd1461044d578063d547cfb71461048a578063e546b9a3146104b5578063e985e9c5146104e0578063f2fde38b1461051d578063f9f411d81461054657610140565b8063715018a61461036357806385e3c1d41461037a5780638da5cb5b146103a557806395d89b41146103d0578063a22cb465146103fb578063b88d4fde1461042457610140565b806342842e0e1161010857806342842e0e1461023c57806355f804b3146102655780635ae6a9ed1461028e578063634282af146102aa5780636352211e146102e957806370a082311461032657610140565b806301ffc9a71461014557806306fdde0314610182578063081812fc146101ad578063095ea7b3146101ea57806323b872dd14610213575b600080fd5b34801561015157600080fd5b5061016c60048036038101906101679190612570565b610585565b60405161017991906125b8565b60405180910390f35b34801561018e57600080fd5b50610197610667565b6040516101a4919061266c565b60405180910390f35b3480156101b957600080fd5b506101d460048036038101906101cf91906126c4565b6106f9565b6040516101e19190612732565b60405180910390f35b3480156101f657600080fd5b50610211600480360381019061020c9190612779565b61073f565b005b34801561021f57600080fd5b5061023a600480360381019061023591906127b9565b610856565b005b34801561024857600080fd5b50610263600480360381019061025e91906127b9565b6108b6565b005b34801561027157600080fd5b5061028c60048036038101906102879190612941565b6108d6565b005b6102a860048036038101906102a39190612941565b6108f8565b005b3480156102b657600080fd5b506102d160048036038101906102cc91906126c4565b610ac9565b6040516102e093929190612999565b60405180910390f35b3480156102f557600080fd5b50610310600480360381019061030b91906126c4565b610bab565b60405161031d9190612732565b60405180910390f35b34801561033257600080fd5b5061034d600480360381019061034891906129d7565b610c31565b60405161035a9190612a04565b60405180910390f35b34801561036f57600080fd5b50610378610ce8565b005b34801561038657600080fd5b5061038f610cfc565b60405161039c9190612b99565b60405180910390f35b3480156103b157600080fd5b506103ba610e4d565b6040516103c79190612732565b60405180910390f35b3480156103dc57600080fd5b506103e5610e77565b6040516103f2919061266c565b60405180910390f35b34801561040757600080fd5b50610422600480360381019061041d9190612be7565b610f09565b005b34801561043057600080fd5b5061044b60048036038101906104469190612cc8565b610f1f565b005b34801561045957600080fd5b50610474600480360381019061046f91906126c4565b610f81565b604051610481919061266c565b60405180910390f35b34801561049657600080fd5b5061049f610fe9565b6040516104ac919061266c565b60405180910390f35b3480156104c157600080fd5b506104ca611077565b6040516104d79190612b99565b60405180910390f35b3480156104ec57600080fd5b5061050760048036038101906105029190612d4b565b611205565b60405161051491906125b8565b60405180910390f35b34801561052957600080fd5b50610544600480360381019061053f91906129d7565b611299565b005b34801561055257600080fd5b5061056d60048036038101906105689190612779565b61131c565b60405161057c93929190612999565b60405180910390f35b60007f80ac58cd000000000000000000000000000000000000000000000000000000007bffffffffffffffffffffffffffffffffffffffffffffffffffffffff1916827bffffffffffffffffffffffffffffffffffffffffffffffffffffffff1916148061065057507f5b5e139f000000000000000000000000000000000000000000000000000000007bffffffffffffffffffffffffffffffffffffffffffffffffffffffff1916827bffffffffffffffffffffffffffffffffffffffffffffffffffffffff1916145b80610660575061065f8261140b565b5b9050919050565b60606000805461067690612dba565b80601f01602080910402602001604051908101604052809291908181526020018280546106a290612dba565b80156106ef5780601f106106c4576101008083540402835291602001916106ef565b820191906000526020600020905b8154815290600101906020018083116106d257829003601f168201915b5050505050905090565b600061070482611475565b6004600083815260200190815260200160002060009054906101000a900473ffffffffffffffffffffffffffffffffffffffff169050919050565b600061074a82610bab565b90508073ffffffffffffffffffffffffffffffffffffffff168373ffffffffffffffffffffffffffffffffffffffff16036107ba576040517f08c379a00000000000000000000000000000000000000000000000000000000081526004016107b190612e5d565b60405180910390fd5b8073ffffffffffffffffffffffffffffffffffffffff166107d96114c0565b73ffffffffffffffffffffffffffffffffffffffff1614806108085750610807816108026114c0565b611205565b5b610847576040517f08c379a000000000000000000000000000000000000000000000000000000000815260040161083e90612eef565b60405180910390fd5b61085183836114c8565b505050565b6108676108616114c0565b82611581565b6108a6576040517f08c379a000000000000000000000000000000000000000000000000000000000815260040161089d90612f81565b60405180910390fd5b6108b1838383611616565b505050565b6108d183838360405180602001604052806000815250610f1f565b505050565b6108de61190f565b80600890805190602001906108f4929190612461565b5050565b6000610904600761198d565b9050610910338261199b565b61091a60076119b9565b600060405180606001604052808381526020018481526020013373ffffffffffffffffffffffffffffffffffffffff168152509050600a60003373ffffffffffffffffffffffffffffffffffffffff1673ffffffffffffffffffffffffffffffffffffffff1681526020019081526020016000208190806001815401808255809150506001900390600052602060002090600302016000909190919091506000820151816000015560208201518160010190805190602001906109de929190612461565b5060408201518160020160006101000a81548173ffffffffffffffffffffffffffffffffffffffff021916908373ffffffffffffffffffffffffffffffffffffffff16021790555050506009819080600181540180825580915050600190039060005260206000209060030201600090919091909150600082015181600001556020820151816001019080519060200190610a7a929190612461565b5060408201518160020160006101000a81548173ffffffffffffffffffffffffffffffffffffffff021916908373ffffffffffffffffffffffffffffffffffffffff1602179055505050505050565b60098181548110610ad957600080fd5b9060005260206000209060030201600091509050806000015490806001018054610b0290612dba565b80601f0160208091040260200160405190810160405280929190818152602001828054610b2e90612dba565b8015610b7b5780601f10610b5057610100808354040283529160200191610b7b565b820191906000526020600020905b815481529060010190602001808311610b5e57829003601f168201915b5050505050908060020160009054906101000a900473ffffffffffffffffffffffffffffffffffffffff16905083565b600080610bb7836119cf565b9050600073ffffffffffffffffffffffffffffffffffffffff168173ffffffffffffffffffffffffffffffffffffffff1603610c28576040517f08c379a0000000000000000000000000000000000000000000000000000000008152600401610c1f90612fed565b60405180910390fd5b80915050919050565b60008073ffffffffffffffffffffffffffffffffffffffff168273ffffffffffffffffffffffffffffffffffffffff1603610ca1576040517f08c379a0000000000000000000000000000000000000000000000000000000008152600401610c989061307f565b60405180910390fd5b600360008373ffffffffffffffffffffffffffffffffffffffff1673ffffffffffffffffffffffffffffffffffffffff168152602001908152602001600020549050919050565b610cf061190f565b610cfa6000611a0c565b565b60606009805480602002602001604051908101604052809291908181526020016000905b82821015610e44578382906000526020600020906003020160405180606001604052908160008201548152602001600182018054610d5d90612dba565b80601f0160208091040260200160405190810160405280929190818152602001828054610d8990612dba565b8015610dd65780601f10610dab57610100808354040283529160200191610dd6565b820191906000526020600020905b815481529060010190602001808311610db957829003601f168201915b505050505081526020016002820160009054906101000a900473ffffffffffffffffffffffffffffffffffffffff1673ffffffffffffffffffffffffffffffffffffffff1673ffffffffffffffffffffffffffffffffffffffff168152505081526020019060010190610d20565b50505050905090565b6000600660009054906101000a900473ffffffffffffffffffffffffffffffffffffffff16905090565b606060018054610e8690612dba565b80601f0160208091040260200160405190810160405280929190818152602001828054610eb290612dba565b8015610eff5780601f10610ed457610100808354040283529160200191610eff565b820191906000526020600020905b815481529060010190602001808311610ee257829003601f168201915b5050505050905090565b610f1b610f146114c0565b8383611ad2565b5050565b610f30610f2a6114c0565b83611581565b610f6f576040517f08c379a0000000000000000000000000000000000000000000000000000000008152600401610f6690612f81565b60405180910390fd5b610f7b84848484611c3e565b50505050565b6060610f8c82611475565b6000610f96611c9a565b90506000815111610fb65760405180602001604052806000815250610fe1565b80610fc084611cb1565b604051602001610fd19291906130db565b6040516020818303038152906040525b915050919050565b60088054610ff690612dba565b80601f016020809104026020016040519081016040528092919081815260200182805461102290612dba565b801561106f5780601f106110445761010080835404028352916020019161106f565b820191906000526020600020905b81548152906001019060200180831161105257829003601f168201915b505050505081565b6060600a60003373ffffffffffffffffffffffffffffffffffffffff1673ffffffffffffffffffffffffffffffffffffffff168152602001908152602001600020805480602002602001604051908101604052809291908181526020016000905b828210156111fc57838290600052602060002090600302016040518060600160405290816000820154815260200160018201805461111590612dba565b80601f016020809104026020016040519081016040528092919081815260200182805461114190612dba565b801561118e5780601f106111635761010080835404028352916020019161118e565b820191906000526020600020905b81548152906001019060200180831161117157829003601f168201915b505050505081526020016002820160009054906101000a900473ffffffffffffffffffffffffffffffffffffffff1673ffffffffffffffffffffffffffffffffffffffff1673ffffffffffffffffffffffffffffffffffffffff1681525050815260200190600101906110d8565b50505050905090565b6000600560008473ffffffffffffffffffffffffffffffffffffffff1673ffffffffffffffffffffffffffffffffffffffff16815260200190815260200160002060008373ffffffffffffffffffffffffffffffffffffffff1673ffffffffffffffffffffffffffffffffffffffff16815260200190815260200160002060009054906101000a900460ff16905092915050565b6112a161190f565b600073ffffffffffffffffffffffffffffffffffffffff168173ffffffffffffffffffffffffffffffffffffffff1603611310576040517f08c379a000000000000000000000000000000000000000000000000000000000815260040161130790613171565b60405180910390fd5b61131981611a0c565b50565b600a602052816000526040600020818154811061133857600080fd5b90600052602060002090600302016000915091505080600001549080600101805461136290612dba565b80601f016020809104026020016040519081016040528092919081815260200182805461138e90612dba565b80156113db5780601f106113b0576101008083540402835291602001916113db565b820191906000526020600020905b8154815290600101906020018083116113be57829003601f168201915b5050505050908060020160009054906101000a900473ffffffffffffffffffffffffffffffffffffffff16905083565b60007f01ffc9a7000000000000000000000000000000000000000000000000000000007bffffffffffffffffffffffffffffffffffffffffffffffffffffffff1916827bffffffffffffffffffffffffffffffffffffffffffffffffffffffff1916149050919050565b61147e81611d7f565b6114bd576040517f08c379a00000000000000000000000000000000000000000000000000000000081526004016114b490612fed565b60405180910390fd5b50565b600033905090565b816004600083815260200190815260200160002060006101000a81548173ffffffffffffffffffffffffffffffffffffffff021916908373ffffffffffffffffffffffffffffffffffffffff160217905550808273ffffffffffffffffffffffffffffffffffffffff1661153b83610bab565b73ffffffffffffffffffffffffffffffffffffffff167f8c5be1e5ebec7d5bd14f71427d1e84f3dd0314c0f7b2291e5b200ac8c7c3b92560405160405180910390a45050565b60008061158d83610bab565b90508073ffffffffffffffffffffffffffffffffffffffff168473ffffffffffffffffffffffffffffffffffffffff1614806115cf57506115ce8185611205565b5b8061160d57508373ffffffffffffffffffffffffffffffffffffffff166115f5846106f9565b73ffffffffffffffffffffffffffffffffffffffff16145b91505092915050565b8273ffffffffffffffffffffffffffffffffffffffff1661163682610bab565b73ffffffffffffffffffffffffffffffffffffffff161461168c576040517f08c379a000000000000000000000000000000000000000000000000000000000815260040161168390613203565b60405180910390fd5b600073ffffffffffffffffffffffffffffffffffffffff168273ffffffffffffffffffffffffffffffffffffffff16036116fb576040517f08c379a00000000000000000000000000000000000000000000000000000000081526004016116f290613295565b60405180910390fd5b6117088383836001611dc0565b8273ffffffffffffffffffffffffffffffffffffffff1661172882610bab565b73ffffffffffffffffffffffffffffffffffffffff161461177e576040517f08c379a000000000000000000000000000000000000000000000000000000000815260040161177590613203565b60405180910390fd5b6004600082815260200190815260200160002060006101000a81549073ffffffffffffffffffffffffffffffffffffffff02191690556001600360008573ffffffffffffffffffffffffffffffffffffffff1673ffffffffffffffffffffffffffffffffffffffff168152602001908152602001600020600082825403925050819055506001600360008473ffffffffffffffffffffffffffffffffffffffff1673ffffffffffffffffffffffffffffffffffffffff16815260200190815260200160002060008282540192505081905550816002600083815260200190815260200160002060006101000a81548173ffffffffffffffffffffffffffffffffffffffff021916908373ffffffffffffffffffffffffffffffffffffffff160217905550808273ffffffffffffffffffffffffffffffffffffffff168473ffffffffffffffffffffffffffffffffffffffff167fddf252ad1be2c89b69c2b068fc378daa952ba7f163c4a11628f55a4df523b3ef60405160405180910390a461190a8383836001611ee6565b505050565b6119176114c0565b73ffffffffffffffffffffffffffffffffffffffff16611935610e4d565b73ffffffffffffffffffffffffffffffffffffffff161461198b576040517f08c379a000000000000000000000000000000000000000000000000000000000815260040161198290613301565b60405180910390fd5b565b600081600001549050919050565b6119b5828260405180602001604052806000815250611eec565b5050565b6001816000016000828254019250508190555050565b60006002600083815260200190815260200160002060009054906101000a900473ffffffffffffffffffffffffffffffffffffffff169050919050565b6000600660009054906101000a900473ffffffffffffffffffffffffffffffffffffffff16905081600660006101000a81548173ffffffffffffffffffffffffffffffffffffffff021916908373ffffffffffffffffffffffffffffffffffffffff1602179055508173ffffffffffffffffffffffffffffffffffffffff168173ffffffffffffffffffffffffffffffffffffffff167f8be0079c531659141344cd1fd0a4f28419497f9722a3daafe3b4186f6b6457e060405160405180910390a35050565b8173ffffffffffffffffffffffffffffffffffffffff168373ffffffffffffffffffffffffffffffffffffffff1603611b40576040517f08c379a0000000000000000000000000000000000000000000000000000000008152600401611b379061336d565b60405180910390fd5b80600560008573ffffffffffffffffffffffffffffffffffffffff1673ffffffffffffffffffffffffffffffffffffffff16815260200190815260200160002060008473ffffffffffffffffffffffffffffffffffffffff1673ffffffffffffffffffffffffffffffffffffffff16815260200190815260200160002060006101000a81548160ff0219169083151502179055508173ffffffffffffffffffffffffffffffffffffffff168373ffffffffffffffffffffffffffffffffffffffff167f17307eab39ab6107e8899845ad3d59bd9653f200f220920489ca2b5937696c3183604051611c3191906125b8565b60405180910390a3505050565b611c49848484611616565b611c5584848484611f47565b611c94576040517f08c379a0000000000000000000000000000000000000000000000000000000008152600401611c8b906133ff565b60405180910390fd5b50505050565b606060405180602001604052806000815250905090565b606060006001611cc0846120ce565b01905060008167ffffffffffffffff811115611cdf57611cde612816565b5b6040519080825280601f01601f191660200182016040528015611d115781602001600182028036833780820191505090505b509050600082602001820190505b600115611d74578080600190039150507f3031323334353637383961626364656600000000000000000000000000000000600a86061a8153600a8581611d6857611d6761341f565b5b04945060008503611d1f575b819350505050919050565b60008073ffffffffffffffffffffffffffffffffffffffff16611da1836119cf565b73ffffffffffffffffffffffffffffffffffffffff1614159050919050565b6001811115611ee057600073ffffffffffffffffffffffffffffffffffffffff168473ffffffffffffffffffffffffffffffffffffffff1614611e545780600360008673ffffffffffffffffffffffffffffffffffffffff1673ffffffffffffffffffffffffffffffffffffffff1681526020019081526020016000206000828254611e4c919061347d565b925050819055505b600073ffffffffffffffffffffffffffffffffffffffff168373ffffffffffffffffffffffffffffffffffffffff1614611edf5780600360008573ffffffffffffffffffffffffffffffffffffffff1673ffffffffffffffffffffffffffffffffffffffff1681526020019081526020016000206000828254611ed791906134b1565b925050819055505b5b50505050565b50505050565b611ef68383612221565b611f036000848484611f47565b611f42576040517f08c379a0000000000000000000000000000000000000000000000000000000008152600401611f39906133ff565b60405180910390fd5b505050565b6000611f688473ffffffffffffffffffffffffffffffffffffffff1661243e565b156120c1578373ffffffffffffffffffffffffffffffffffffffff1663150b7a02611f916114c0565b8786866040518563ffffffff1660e01b8152600401611fb3949392919061355c565b6020604051808303816000875af1925050508015611fef57506040513d601f19601f82011682018060405250810190611fec91906135bd565b60015b612071573d806000811461201f576040519150601f19603f3d011682016040523d82523d6000602084013e612024565b606091505b506000815103612069576040517f08c379a0000000000000000000000000000000000000000000000000000000008152600401612060906133ff565b60405180910390fd5b805181602001fd5b63150b7a0260e01b7bffffffffffffffffffffffffffffffffffffffffffffffffffffffff1916817bffffffffffffffffffffffffffffffffffffffffffffffffffffffff1916149150506120c6565b600190505b949350505050565b600080600090507a184f03e93ff9f4daa797ed6e38ed64bf6a1f010000000000000000831061212c577a184f03e93ff9f4daa797ed6e38ed64bf6a1f01000000000000000083816121225761212161341f565b5b0492506040810190505b6d04ee2d6d415b85acef81000000008310612169576d04ee2d6d415b85acef8100000000838161215f5761215e61341f565b5b0492506020810190505b662386f26fc10000831061219857662386f26fc10000838161218e5761218d61341f565b5b0492506010810190505b6305f5e10083106121c1576305f5e10083816121b7576121b661341f565b5b0492506008810190505b61271083106121e65761271083816121dc576121db61341f565b5b0492506004810190505b6064831061220957606483816121ff576121fe61341f565b5b0492506002810190505b600a8310612218576001810190505b80915050919050565b600073ffffffffffffffffffffffffffffffffffffffff168273ffffffffffffffffffffffffffffffffffffffff1603612290576040517f08c379a000000000000000000000000000000000000000000000000000000000815260040161228790613636565b60405180910390fd5b61229981611d7f565b156122d9576040517f08c379a00000000000000000000000000000000000000000000000000000000081526004016122d0906136a2565b60405180910390fd5b6122e7600083836001611dc0565b6122f081611d7f565b15612330576040517f08c379a0000000000000000000000000000000000000000000000000000000008152600401612327906136a2565b60405180910390fd5b6001600360008473ffffffffffffffffffffffffffffffffffffffff1673ffffffffffffffffffffffffffffffffffffffff16815260200190815260200160002060008282540192505081905550816002600083815260200190815260200160002060006101000a81548173ffffffffffffffffffffffffffffffffffffffff021916908373ffffffffffffffffffffffffffffffffffffffff160217905550808273ffffffffffffffffffffffffffffffffffffffff16600073ffffffffffffffffffffffffffffffffffffffff167fddf252ad1be2c89b69c2b068fc378daa952ba7f163c4a11628f55a4df523b3ef60405160405180910390a461243a600083836001611ee6565b5050565b6000808273ffffffffffffffffffffffffffffffffffffffff163b119050919050565b82805461246d90612dba565b90600052602060002090601f01602090048101928261248f57600085556124d6565b82601f106124a857805160ff19168380011785556124d6565b828001600101855582156124d6579182015b828111156124d55782518255916020019190600101906124ba565b5b5090506124e391906124e7565b5090565b5b808211156125005760008160009055506001016124e8565b5090565b6000604051905090565b600080fd5b600080fd5b60007fffffffff0000000000000000000000000000000000000000000000000000000082169050919050565b61254d81612518565b811461255857600080fd5b50565b60008135905061256a81612544565b92915050565b6000602082840312156125865761258561250e565b5b60006125948482850161255b565b91505092915050565b60008115159050919050565b6125b28161259d565b82525050565b60006020820190506125cd60008301846125a9565b92915050565b600081519050919050565b600082825260208201905092915050565b60005b8381101561260d5780820151818401526020810190506125f2565b8381111561261c576000848401525b50505050565b6000601f19601f8301169050919050565b600061263e826125d3565b61264881856125de565b93506126588185602086016125ef565b61266181612622565b840191505092915050565b600060208201905081810360008301526126868184612633565b905092915050565b6000819050919050565b6126a18161268e565b81146126ac57600080fd5b50565b6000813590506126be81612698565b92915050565b6000602082840312156126da576126d961250e565b5b60006126e8848285016126af565b91505092915050565b600073ffffffffffffffffffffffffffffffffffffffff82169050919050565b600061271c826126f1565b9050919050565b61272c81612711565b82525050565b60006020820190506127476000830184612723565b92915050565b61275681612711565b811461276157600080fd5b50565b6000813590506127738161274d565b92915050565b600080604083850312156127905761278f61250e565b5b600061279e85828601612764565b92505060206127af858286016126af565b9150509250929050565b6000806000606084860312156127d2576127d161250e565b5b60006127e086828701612764565b93505060206127f186828701612764565b9250506040612802868287016126af565b9150509250925092565b600080fd5b600080fd5b7f4e487b7100000000000000000000000000000000000000000000000000000000600052604160045260246000fd5b61284e82612622565b810181811067ffffffffffffffff8211171561286d5761286c612816565b5b80604052505050565b6000612880612504565b905061288c8282612845565b919050565b600067ffffffffffffffff8211156128ac576128ab612816565b5b6128b582612622565b9050602081019050919050565b82818337600083830152505050565b60006128e46128df84612891565b612876565b905082815260208101848484011115612900576128ff612811565b5b61290b8482856128c2565b509392505050565b600082601f8301126129285761292761280c565b5b81356129388482602086016128d1565b91505092915050565b6000602082840312156129575761295661250e565b5b600082013567ffffffffffffffff81111561297557612974612513565b5b61298184828501612913565b91505092915050565b6129938161268e565b82525050565b60006060820190506129ae600083018661298a565b81810360208301526129c08185612633565b90506129cf6040830184612723565b949350505050565b6000602082840312156129ed576129ec61250e565b5b60006129fb84828501612764565b91505092915050565b6000602082019050612a19600083018461298a565b92915050565b600081519050919050565b600082825260208201905092915050565b6000819050602082019050919050565b612a548161268e565b82525050565b600082825260208201905092915050565b6000612a76826125d3565b612a808185612a5a565b9350612a908185602086016125ef565b612a9981612622565b840191505092915050565b612aad81612711565b82525050565b6000606083016000830151612acb6000860182612a4b565b5060208301518482036020860152612ae38282612a6b565b9150506040830151612af86040860182612aa4565b508091505092915050565b6000612b0f8383612ab3565b905092915050565b6000602082019050919050565b6000612b2f82612a1f565b612b398185612a2a565b935083602082028501612b4b85612a3b565b8060005b85811015612b875784840389528151612b688582612b03565b9450612b7383612b17565b925060208a01995050600181019050612b4f565b50829750879550505050505092915050565b60006020820190508181036000830152612bb38184612b24565b905092915050565b612bc48161259d565b8114612bcf57600080fd5b50565b600081359050612be181612bbb565b92915050565b60008060408385031215612bfe57612bfd61250e565b5b6000612c0c85828601612764565b9250506020612c1d85828601612bd2565b9150509250929050565b600067ffffffffffffffff821115612c4257612c41612816565b5b612c4b82612622565b9050602081019050919050565b6000612c6b612c6684612c27565b612876565b905082815260208101848484011115612c8757612c86612811565b5b612c928482856128c2565b509392505050565b600082601f830112612caf57612cae61280c565b5b8135612cbf848260208601612c58565b91505092915050565b60008060008060808587031215612ce257612ce161250e565b5b6000612cf087828801612764565b9450506020612d0187828801612764565b9350506040612d12878288016126af565b925050606085013567ffffffffffffffff811115612d3357612d32612513565b5b612d3f87828801612c9a565b91505092959194509250565b60008060408385031215612d6257612d6161250e565b5b6000612d7085828601612764565b9250506020612d8185828601612764565b9150509250929050565b7f4e487b7100000000000000000000000000000000000000000000000000000000600052602260045260246000fd5b60006002820490506001821680612dd257607f821691505b602082108103612de557612de4612d8b565b5b50919050565b7f4552433732313a20617070726f76616c20746f2063757272656e74206f776e6560008201527f7200000000000000000000000000000000000000000000000000000000000000602082015250565b6000612e476021836125de565b9150612e5282612deb565b604082019050919050565b60006020820190508181036000830152612e7681612e3a565b9050919050565b7f4552433732313a20617070726f76652063616c6c6572206973206e6f7420746f60008201527f6b656e206f776e6572206f7220617070726f76656420666f7220616c6c000000602082015250565b6000612ed9603d836125de565b9150612ee482612e7d565b604082019050919050565b60006020820190508181036000830152612f0881612ecc565b9050919050565b7f4552433732313a2063616c6c6572206973206e6f7420746f6b656e206f776e6560008201527f72206f7220617070726f76656400000000000000000000000000000000000000602082015250565b6000612f6b602d836125de565b9150612f7682612f0f565b604082019050919050565b60006020820190508181036000830152612f9a81612f5e565b9050919050565b7f4552433732313a20696e76616c696420746f6b656e2049440000000000000000600082015250565b6000612fd76018836125de565b9150612fe282612fa1565b602082019050919050565b6000602082019050818103600083015261300681612fca565b9050919050565b7f4552433732313a2061646472657373207a65726f206973206e6f74206120766160008201527f6c6964206f776e65720000000000000000000000000000000000000000000000602082015250565b60006130696029836125de565b91506130748261300d565b604082019050919050565b600060208201905081810360008301526130988161305c565b9050919050565b600081905092915050565b60006130b5826125d3565b6130bf818561309f565b93506130cf8185602086016125ef565b80840191505092915050565b60006130e782856130aa565b91506130f382846130aa565b91508190509392505050565b7f4f776e61626c653a206e6577206f776e657220697320746865207a65726f206160008201527f6464726573730000000000000000000000000000000000000000000000000000602082015250565b600061315b6026836125de565b9150613166826130ff565b604082019050919050565b6000602082019050818103600083015261318a8161314e565b9050919050565b7f4552433732313a207472616e736665722066726f6d20696e636f72726563742060008201527f6f776e6572000000000000000000000000000000000000000000000000000000602082015250565b60006131ed6025836125de565b91506131f882613191565b604082019050919050565b6000602082019050818103600083015261321c816131e0565b9050919050565b7f4552433732313a207472616e7366657220746f20746865207a65726f2061646460008201527f7265737300000000000000000000000000000000000000000000000000000000602082015250565b600061327f6024836125de565b915061328a82613223565b604082019050919050565b600060208201905081810360008301526132ae81613272565b9050919050565b7f4f776e61626c653a2063616c6c6572206973206e6f7420746865206f776e6572600082015250565b60006132eb6020836125de565b91506132f6826132b5565b602082019050919050565b6000602082019050818103600083015261331a816132de565b9050919050565b7f4552433732313a20617070726f766520746f2063616c6c657200000000000000600082015250565b60006133576019836125de565b915061336282613321565b602082019050919050565b600060208201905081810360008301526133868161334a565b9050919050565b7f4552433732313a207472616e7366657220746f206e6f6e20455243373231526560008201527f63656976657220696d706c656d656e7465720000000000000000000000000000602082015250565b60006133e96032836125de565b91506133f48261338d565b604082019050919050565b60006020820190508181036000830152613418816133dc565b9050919050565b7f4e487b7100000000000000000000000000000000000000000000000000000000600052601260045260246000fd5b7f4e487b7100000000000000000000000000000000000000000000000000000000600052601160045260246000fd5b60006134888261268e565b91506134938361268e565b9250828210156134a6576134a561344e565b5b828203905092915050565b60006134bc8261268e565b91506134c78361268e565b9250827fffffffffffffffffffffffffffffffffffffffffffffffffffffffffffffffff038211156134fc576134fb61344e565b5b828201905092915050565b600081519050919050565b600082825260208201905092915050565b600061352e82613507565b6135388185613512565b93506135488185602086016125ef565b61355181612622565b840191505092915050565b60006080820190506135716000830187612723565b61357e6020830186612723565b61358b604083018561298a565b818103606083015261359d8184613523565b905095945050505050565b6000815190506135b781612544565b92915050565b6000602082840312156135d3576135d261250e565b5b60006135e1848285016135a8565b91505092915050565b7f4552433732313a206d696e7420746f20746865207a65726f2061646472657373600082015250565b60006136206020836125de565b915061362b826135ea565b602082019050919050565b6000602082019050818103600083015261364f81613613565b9050919050565b7f4552433732313a20746f6b656e20616c7265616479206d696e74656400000000600082015250565b600061368c601c836125de565b915061369782613656565b602082019050919050565b600060208201905081810360008301526136bb8161367f565b905091905056fea264697066735822122005a581c509a5f5fd57c1d55b678e9a5533f3f563e3cc34b59d66d5a76574969364736f6c634300080d0033",
  "immutableReferences": {},
  "source": "//SPDX-License-Identifier: MIT\npragma solidity ^0.8.13;\n\nimport \"@openzeppelin/contracts/utils/Counters.sol\";\nimport \"@openzeppelin/contracts/access/Ownable.sol\";\nimport \"@openzeppelin/contracts/utils/math/SafeMath.sol\";\nimport \"@openzeppelin/contracts/token/ERC721/ERC721.sol\";\n\ncontract ClimateToken is ERC721, Ownable {\n    using SafeMath for uint256;\n    using Counters for Counters.Counter;\n\n\n    constructor(string memory baseURI, string memory name, string memory symbol) ERC721(name, symbol) {\n        setBaseURI(baseURI);\n    }\n\n    Counters.Counter private _tokenIds;\n\n    string public baseTokenURI;\n\n\n    struct CToken {\n        uint256 tokenId;\n        string tokenName;\n        address owner;\n    }\n\n    CToken[] public allTokens;\n\n    mapping(address => CToken[]) public userTokens;\n\n    function setBaseURI(string memory _baseTokenURI) public onlyOwner {\n        baseTokenURI = _baseTokenURI;\n    }\n    function getAllToken() public view returns (CToken[] memory) {\n        return allTokens;\n    }\n\n    function getUserToken() public view returns (CToken [] memory) {\n        return userTokens[msg.sender];\n    }\n\n    // Mint new token and update the list\n    function mintCToken(string memory _tokenName) public payable {\n        uint256 _tokenId = _tokenIds.current();\n        _safeMint(msg.sender, _tokenId);\n        _tokenIds.increment();\n\n\n        CToken memory token = CToken({tokenId:_tokenId, tokenName:_tokenName, owner:msg.sender});\n        userTokens[msg.sender].push(token);\n\n        allTokens.push(token);\n    }\n}\n\n",
  "sourcePath": "/home/kennedy/Documents/Dev-Stuff/Group-C-Project/Ethereum/nft-for-climate-change/contracts/ClimateNTF.sol",
  "compiler": {
    "name": "solc",
    "version": "0.8.13+commit.abaa5c0e.Emscripten.clang"
  },
  "schemaVersion": "3.4.11",
  "updatedAt": "2022-12-01T16:13:35.919Z",
  "devdoc": {
    "kind": "dev",
    "methods": {
      "approve(address,uint256)": {
        "details": "See {IERC721-approve}."
      },
      "balanceOf(address)": {
        "details": "See {IERC721-balanceOf}."
      },
      "getApproved(uint256)": {
        "details": "See {IERC721-getApproved}."
      },
      "isApprovedForAll(address,address)": {
        "details": "See {IERC721-isApprovedForAll}."
      },
      "name()": {
        "details": "See {IERC721Metadata-name}."
      },
      "owner()": {
        "details": "Returns the address of the current owner."
      },
      "ownerOf(uint256)": {
        "details": "See {IERC721-ownerOf}."
      },
      "renounceOwnership()": {
        "details": "Leaves the contract without owner. It will not be possible to call `onlyOwner` functions anymore. Can only be called by the current owner. NOTE: Renouncing ownership will leave the contract without an owner, thereby removing any functionality that is only available to the owner."
      },
      "safeTransferFrom(address,address,uint256)": {
        "details": "See {IERC721-safeTransferFrom}."
      },
      "safeTransferFrom(address,address,uint256,bytes)": {
        "details": "See {IERC721-safeTransferFrom}."
      },
      "setApprovalForAll(address,bool)": {
        "details": "See {IERC721-setApprovalForAll}."
      },
      "supportsInterface(bytes4)": {
        "details": "See {IERC165-supportsInterface}."
      },
      "symbol()": {
        "details": "See {IERC721Metadata-symbol}."
      },
      "tokenURI(uint256)": {
        "details": "See {IERC721Metadata-tokenURI}."
      },
      "transferFrom(address,address,uint256)": {
        "details": "See {IERC721-transferFrom}."
      },
      "transferOwnership(address)": {
        "details": "Transfers ownership of the contract to a new account (`newOwner`). Can only be called by the current owner."
      }
    },
    "version": 1
  },
  "userdoc": {
    "kind": "user",
    "methods": {},
    "version": 1
  }
}