{
  "contractName": "ClimateNFT",
  "abi": [
    {
      "inputs": [
        {
          "internalType": "string",
          "name": "baseURI",
          "type": "string"
        },
        {
          "internalType": "string",
          "name": "name",
          "type": "string"
        },
        {
          "internalType": "string",
          "name": "symbol",
          "type": "string"
        }
      ],
      "stateMutability": "nonpayable",
      "type": "constructor"
    },
    {
      "anonymous": false,
      "inputs": [
        {
          "indexed": true,
          "internalType": "address",
          "name": "owner",
          "type": "address"
        },
        {
          "indexed": true,
          "internalType": "address",
          "name": "approved",
          "type": "address"
        },
        {
          "indexed": true,
          "internalType": "uint256",
          "name": "tokenId",
          "type": "uint256"
        }
      ],
      "name": "Approval",
      "type": "event"
    },
    {
      "anonymous": false,
      "inputs": [
        {
          "indexed": true,
          "internalType": "address",
          "name": "owner",
          "type": "address"
        },
        {
          "indexed": true,
          "internalType": "address",
          "name": "operator",
          "type": "address"
        },
        {
          "indexed": false,
          "internalType": "bool",
          "name": "approved",
          "type": "bool"
        }
      ],
      "name": "ApprovalForAll",
      "type": "event"
    },
    {
      "anonymous": false,
      "inputs": [
        {
          "indexed": true,
          "internalType": "address",
          "name": "previousOwner",
          "type": "address"
        },
        {
          "indexed": true,
          "internalType": "address",
          "name": "newOwner",
          "type": "address"
        }
      ],
      "name": "OwnershipTransferred",
      "type": "event"
    },
    {
      "anonymous": false,
      "inputs": [
        {
          "indexed": true,
          "internalType": "address",
          "name": "from",
          "type": "address"
        },
        {
          "indexed": true,
          "internalType": "address",
          "name": "to",
          "type": "address"
        },
        {
          "indexed": true,
          "internalType": "uint256",
          "name": "tokenId",
          "type": "uint256"
        }
      ],
      "name": "Transfer",
      "type": "event"
    },
    {
      "inputs": [
        {
          "internalType": "uint256",
          "name": "",
          "type": "uint256"
        }
      ],
      "name": "allTokens",
      "outputs": [
        {
          "internalType": "uint256",
          "name": "tokenId",
          "type": "uint256"
        },
        {
          "internalType": "string",
          "name": "tokenName",
          "type": "string"
        },
        {
          "internalType": "address",
          "name": "owner",
          "type": "address"
        }
      ],
      "stateMutability": "view",
      "type": "function",
      "constant": true
    },
    {
      "inputs": [
        {
          "internalType": "address",
          "name": "to",
          "type": "address"
        },
        {
          "internalType": "uint256",
          "name": "tokenId",
          "type": "uint256"
        }
      ],
      "name": "approve",
      "outputs": [],
      "stateMutability": "nonpayable",
      "type": "function"
    },
    {
      "inputs": [
        {
          "internalType": "address",
          "name": "owner",
          "type": "address"
        }
      ],
      "name": "balanceOf",
      "outputs": [
        {
          "internalType": "uint256",
          "name": "",
          "type": "uint256"
        }
      ],
      "stateMutability": "view",
      "type": "function",
      "constant": true
    },
    {
      "inputs": [],
      "name": "baseTokenURI",
      "outputs": [
        {
          "internalType": "string",
          "name": "",
          "type": "string"
        }
      ],
      "stateMutability": "view",
      "type": "function",
      "constant": true
    },
    {
      "inputs": [
        {
          "internalType": "uint256",
          "name": "tokenId",
          "type": "uint256"
        }
      ],
      "name": "getApproved",
      "outputs": [
        {
          "internalType": "address",
          "name": "",
          "type": "address"
        }
      ],
      "stateMutability": "view",
      "type": "function",
      "constant": true
    },
    {
      "inputs": [
        {
          "internalType": "address",
          "name": "owner",
          "type": "address"
        },
        {
          "internalType": "address",
          "name": "operator",
          "type": "address"
        }
      ],
      "name": "isApprovedForAll",
      "outputs": [
        {
          "internalType": "bool",
          "name": "",
          "type": "bool"
        }
      ],
      "stateMutability": "view",
      "type": "function",
      "constant": true
    },
    {
      "inputs": [],
      "name": "name",
      "outputs": [
        {
          "internalType": "string",
          "name": "",
          "type": "string"
        }
      ],
      "stateMutability": "view",
      "type": "function",
      "constant": true
    },
    {
      "inputs": [],
      "name": "owner",
      "outputs": [
        {
          "internalType": "address",
          "name": "",
          "type": "address"
        }
      ],
      "stateMutability": "view",
      "type": "function",
      "constant": true
    },
    {
      "inputs": [
        {
          "internalType": "uint256",
          "name": "tokenId",
          "type": "uint256"
        }
      ],
      "name": "ownerOf",
      "outputs": [
        {
          "internalType": "address",
          "name": "",
          "type": "address"
        }
      ],
      "stateMutability": "view",
      "type": "function",
      "constant": true
    },
    {
      "inputs": [],
      "name": "renounceOwnership",
      "outputs": [],
      "stateMutability": "nonpayable",
      "type": "function"
    },
    {
      "inputs": [
        {
          "internalType": "address",
          "name": "from",
          "type": "address"
        },
        {
          "internalType": "address",
          "name": "to",
          "type": "address"
        },
        {
          "internalType": "uint256",
          "name": "tokenId",
          "type": "uint256"
        }
      ],
      "name": "safeTransferFrom",
      "outputs": [],
      "stateMutability": "nonpayable",
      "type": "function"
    },
    {
      "inputs": [
        {
          "internalType": "address",
          "name": "from",
          "type": "address"
        },
        {
          "internalType": "address",
          "name": "to",
          "type": "address"
        },
        {
          "internalType": "uint256",
          "name": "tokenId",
          "type": "uint256"
        },
        {
          "internalType": "bytes",
          "name": "data",
          "type": "bytes"
        }
      ],
      "name": "safeTransferFrom",
      "outputs": [],
      "stateMutability": "nonpayable",
      "type": "function"
    },
    {
      "inputs": [
        {
          "internalType": "address",
          "name": "operator",
          "type": "address"
        },
        {
          "internalType": "bool",
          "name": "approved",
          "type": "bool"
        }
      ],
      "name": "setApprovalForAll",
      "outputs": [],
      "stateMutability": "nonpayable",
      "type": "function"
    },
    {
      "inputs": [
        {
          "internalType": "bytes4",
          "name": "interfaceId",
          "type": "bytes4"
        }
      ],
      "name": "supportsInterface",
      "outputs": [
        {
          "internalType": "bool",
          "name": "",
          "type": "bool"
        }
      ],
      "stateMutability": "view",
      "type": "function",
      "constant": true
    },
    {
      "inputs": [],
      "name": "symbol",
      "outputs": [
        {
          "internalType": "string",
          "name": "",
          "type": "string"
        }
      ],
      "stateMutability": "view",
      "type": "function",
      "constant": true
    },
    {
      "inputs": [
        {
          "internalType": "uint256",
          "name": "tokenId",
          "type": "uint256"
        }
      ],
      "name": "tokenURI",
      "outputs": [
        {
          "internalType": "string",
          "name": "",
          "type": "string"
        }
      ],
      "stateMutability": "view",
      "type": "function",
      "constant": true
    },
    {
      "inputs": [
        {
          "internalType": "address",
          "name": "from",
          "type": "address"
        },
        {
          "internalType": "address",
          "name": "to",
          "type": "address"
        },
        {
          "internalType": "uint256",
          "name": "tokenId",
          "type": "uint256"
        }
      ],
      "name": "transferFrom",
      "outputs": [],
      "stateMutability": "nonpayable",
      "type": "function"
    },
    {
      "inputs": [
        {
          "internalType": "address",
          "name": "newOwner",
          "type": "address"
        }
      ],
      "name": "transferOwnership",
      "outputs": [],
      "stateMutability": "nonpayable",
      "type": "function"
    },
    {
      "inputs": [
        {
          "internalType": "address",
          "name": "",
          "type": "address"
        },
        {
          "internalType": "uint256",
          "name": "",
          "type": "uint256"
        }
      ],
      "name": "userTokens",
      "outputs": [
        {
          "internalType": "uint256",
          "name": "tokenId",
          "type": "uint256"
        },
        {
          "internalType": "string",
          "name": "tokenName",
          "type": "string"
        },
        {
          "internalType": "address",
          "name": "owner",
          "type": "address"
        }
      ],
      "stateMutability": "view",
      "type": "function",
      "constant": true
    },
    {
      "inputs": [
        {
          "internalType": "string",
          "name": "_baseTokenURI",
          "type": "string"
        }
      ],
      "name": "setBaseURI",
      "outputs": [],
      "stateMutability": "nonpayable",
      "type": "function"
    },
    {
      "inputs": [],
      "name": "getAllToken",
      "outputs": [
        {
          "components": [
            {
              "internalType": "uint256",
              "name": "tokenId",
              "type": "uint256"
            },
            {
              "internalType": "string",
              "name": "tokenName",
              "type": "string"
            },
            {
              "internalType": "address",
              "name": "owner",
              "type": "address"
            }
          ],
          "internalType": "struct ClimateNFT.CToken[]",
          "name": "",
          "type": "tuple[]"
        }
      ],
      "stateMutability": "view",
      "type": "function",
      "constant": true
    },
    {
      "inputs": [],
      "name": "getUserToken",
      "outputs": [
        {
          "components": [
            {
              "internalType": "uint256",
              "name": "tokenId",
              "type": "uint256"
            },
            {
              "internalType": "string",
              "name": "tokenName",
              "type": "string"
            },
            {
              "internalType": "address",
              "name": "owner",
              "type": "address"
            }
          ],
          "internalType": "struct ClimateNFT.CToken[]",
          "name": "",
          "type": "tuple[]"
        }
      ],
      "stateMutability": "view",
      "type": "function",
      "constant": true
    },
    {
      "inputs": [],
      "name": "mintCToken",
      "outputs": [],
      "stateMutability": "payable",
      "type": "function",
      "payable": true
    }
  ],
  "bytecode": "0x60806040523480156200001157600080fd5b5060405162003d7938038062003d798339818101604052810190620000379190620004a9565b81818160009080519060200190620000519291906200025c565b5080600190805190602001906200006a9291906200025c565b5050506200008d62000081620000a760201b60201c565b620000af60201b60201c565b6200009e836200017560201b60201c565b50505062000649565b600033905090565b6000600660009054906101000a900473ffffffffffffffffffffffffffffffffffffffff16905081600660006101000a81548173ffffffffffffffffffffffffffffffffffffffff021916908373ffffffffffffffffffffffffffffffffffffffff1602179055508173ffffffffffffffffffffffffffffffffffffffff168173ffffffffffffffffffffffffffffffffffffffff167f8be0079c531659141344cd1fd0a4f28419497f9722a3daafe3b4186f6b6457e060405160405180910390a35050565b62000185620001a160201b60201c565b80600890805190602001906200019d9291906200025c565b5050565b620001b1620000a760201b60201c565b73ffffffffffffffffffffffffffffffffffffffff16620001d76200023260201b60201c565b73ffffffffffffffffffffffffffffffffffffffff161462000230576040517f08c379a00000000000000000000000000000000000000000000000000000000081526004016200022790620005c3565b60405180910390fd5b565b6000600660009054906101000a900473ffffffffffffffffffffffffffffffffffffffff16905090565b8280546200026a9062000614565b90600052602060002090601f0160209004810192826200028e5760008555620002da565b82601f10620002a957805160ff1916838001178555620002da565b82800160010185558215620002da579182015b82811115620002d9578251825591602001919060010190620002bc565b5b509050620002e99190620002ed565b5090565b5b8082111562000308576000816000905550600101620002ee565b5090565b6000604051905090565b600080fd5b600080fd5b600080fd5b600080fd5b6000601f19601f8301169050919050565b7f4e487b7100000000000000000000000000000000000000000000000000000000600052604160045260246000fd5b62000375826200032a565b810181811067ffffffffffffffff821117156200039757620003966200033b565b5b80604052505050565b6000620003ac6200030c565b9050620003ba82826200036a565b919050565b600067ffffffffffffffff821115620003dd57620003dc6200033b565b5b620003e8826200032a565b9050602081019050919050565b60005b8381101562000415578082015181840152602081019050620003f8565b8381111562000425576000848401525b50505050565b6000620004426200043c84620003bf565b620003a0565b90508281526020810184848401111562000461576200046062000325565b5b6200046e848285620003f5565b509392505050565b600082601f8301126200048e576200048d62000320565b5b8151620004a08482602086016200042b565b91505092915050565b600080600060608486031215620004c557620004c462000316565b5b600084015167ffffffffffffffff811115620004e657620004e56200031b565b5b620004f48682870162000476565b935050602084015167ffffffffffffffff8111156200051857620005176200031b565b5b620005268682870162000476565b925050604084015167ffffffffffffffff8111156200054a57620005496200031b565b5b620005588682870162000476565b9150509250925092565b600082825260208201905092915050565b7f4f776e61626c653a2063616c6c6572206973206e6f7420746865206f776e6572600082015250565b6000620005ab60208362000562565b9150620005b88262000573565b602082019050919050565b60006020820190508181036000830152620005de816200059c565b9050919050565b7f4e487b7100000000000000000000000000000000000000000000000000000000600052602260045260246000fd5b600060028204905060018216806200062d57607f821691505b602082108103620006435762000642620005e5565b5b50919050565b61372080620006596000396000f3fe6080604052600436106101405760003560e01c8063715018a6116100b6578063c87b56dd1161006f578063c87b56dd1461043b578063d547cfb714610478578063e546b9a3146104a3578063e985e9c5146104ce578063f2fde38b1461050b578063f9f411d81461053457610140565b8063715018a61461035157806385e3c1d4146103685780638da5cb5b1461039357806395d89b41146103be578063a22cb465146103e9578063b88d4fde1461041257610140565b806323b872dd1161010857806323b872dd1461021d57806342842e0e1461024657806355f804b31461026f578063634282af146102985780636352211e146102d757806370a082311461031457610140565b806301ffc9a71461014557806306fdde0314610182578063081812fc146101ad578063095ea7b3146101ea5780631c38c0e514610213575b600080fd5b34801561015157600080fd5b5061016c60048036038101906101679190612598565b610573565b60405161017991906125e0565b60405180910390f35b34801561018e57600080fd5b50610197610655565b6040516101a49190612694565b60405180910390f35b3480156101b957600080fd5b506101d460048036038101906101cf91906126ec565b6106e7565b6040516101e1919061275a565b60405180910390f35b3480156101f657600080fd5b50610211600480360381019061020c91906127a1565b61072d565b005b61021b610844565b005b34801561022957600080fd5b50610244600480360381019061023f91906127e1565b610a4f565b005b34801561025257600080fd5b5061026d600480360381019061026891906127e1565b610aaf565b005b34801561027b57600080fd5b5061029660048036038101906102919190612969565b610acf565b005b3480156102a457600080fd5b506102bf60048036038101906102ba91906126ec565b610af1565b6040516102ce939291906129c1565b60405180910390f35b3480156102e357600080fd5b506102fe60048036038101906102f991906126ec565b610bd3565b60405161030b919061275a565b60405180910390f35b34801561032057600080fd5b5061033b600480360381019061033691906129ff565b610c59565b6040516103489190612a2c565b60405180910390f35b34801561035d57600080fd5b50610366610d10565b005b34801561037457600080fd5b5061037d610d24565b60405161038a9190612bc1565b60405180910390f35b34801561039f57600080fd5b506103a8610e75565b6040516103b5919061275a565b60405180910390f35b3480156103ca57600080fd5b506103d3610e9f565b6040516103e09190612694565b60405180910390f35b3480156103f557600080fd5b50610410600480360381019061040b9190612c0f565b610f31565b005b34801561041e57600080fd5b5061043960048036038101906104349190612cf0565b610f47565b005b34801561044757600080fd5b50610462600480360381019061045d91906126ec565b610fa9565b60405161046f9190612694565b60405180910390f35b34801561048457600080fd5b5061048d611011565b60405161049a9190612694565b60405180910390f35b3480156104af57600080fd5b506104b861109f565b6040516104c59190612bc1565b60405180910390f35b3480156104da57600080fd5b506104f560048036038101906104f09190612d73565b61122d565b60405161050291906125e0565b60405180910390f35b34801561051757600080fd5b50610532600480360381019061052d91906129ff565b6112c1565b005b34801561054057600080fd5b5061055b600480360381019061055691906127a1565b611344565b60405161056a939291906129c1565b60405180910390f35b60007f80ac58cd000000000000000000000000000000000000000000000000000000007bffffffffffffffffffffffffffffffffffffffffffffffffffffffff1916827bffffffffffffffffffffffffffffffffffffffffffffffffffffffff1916148061063e57507f5b5e139f000000000000000000000000000000000000000000000000000000007bffffffffffffffffffffffffffffffffffffffffffffffffffffffff1916827bffffffffffffffffffffffffffffffffffffffffffffffffffffffff1916145b8061064e575061064d82611433565b5b9050919050565b60606000805461066490612de2565b80601f016020809104026020016040519081016040528092919081815260200182805461069090612de2565b80156106dd5780601f106106b2576101008083540402835291602001916106dd565b820191906000526020600020905b8154815290600101906020018083116106c057829003601f168201915b5050505050905090565b60006106f28261149d565b6004600083815260200190815260200160002060009054906101000a900473ffffffffffffffffffffffffffffffffffffffff169050919050565b600061073882610bd3565b90508073ffffffffffffffffffffffffffffffffffffffff168373ffffffffffffffffffffffffffffffffffffffff16036107a8576040517f08c379a000000000000000000000000000000000000000000000000000000000815260040161079f90612e85565b60405180910390fd5b8073ffffffffffffffffffffffffffffffffffffffff166107c76114e8565b73ffffffffffffffffffffffffffffffffffffffff1614806107f657506107f5816107f06114e8565b61122d565b5b610835576040517f08c379a000000000000000000000000000000000000000000000000000000000815260040161082c90612f17565b60405180910390fd5b61083f83836114f0565b505050565b60006040518060400160405280600881526020017f6d792d746f6b656e0000000000000000000000000000000000000000000000008152509050600061088a60076115a9565b905061089633826115b7565b6108a060076115d5565b600060405180606001604052808381526020018481526020013373ffffffffffffffffffffffffffffffffffffffff168152509050600a60003373ffffffffffffffffffffffffffffffffffffffff1673ffffffffffffffffffffffffffffffffffffffff168152602001908152602001600020819080600181540180825580915050600190039060005260206000209060030201600090919091909150600082015181600001556020820151816001019080519060200190610964929190612489565b5060408201518160020160006101000a81548173ffffffffffffffffffffffffffffffffffffffff021916908373ffffffffffffffffffffffffffffffffffffffff16021790555050506009819080600181540180825580915050600190039060005260206000209060030201600090919091909150600082015181600001556020820151816001019080519060200190610a00929190612489565b5060408201518160020160006101000a81548173ffffffffffffffffffffffffffffffffffffffff021916908373ffffffffffffffffffffffffffffffffffffffff1602179055505050505050565b610a60610a5a6114e8565b826115eb565b610a9f576040517f08c379a0000000000000000000000000000000000000000000000000000000008152600401610a9690612fa9565b60405180910390fd5b610aaa838383611680565b505050565b610aca83838360405180602001604052806000815250610f47565b505050565b610ad7611979565b8060089080519060200190610aed929190612489565b5050565b60098181548110610b0157600080fd5b9060005260206000209060030201600091509050806000015490806001018054610b2a90612de2565b80601f0160208091040260200160405190810160405280929190818152602001828054610b5690612de2565b8015610ba35780601f10610b7857610100808354040283529160200191610ba3565b820191906000526020600020905b815481529060010190602001808311610b8657829003601f168201915b5050505050908060020160009054906101000a900473ffffffffffffffffffffffffffffffffffffffff16905083565b600080610bdf836119f7565b9050600073ffffffffffffffffffffffffffffffffffffffff168173ffffffffffffffffffffffffffffffffffffffff1603610c50576040517f08c379a0000000000000000000000000000000000000000000000000000000008152600401610c4790613015565b60405180910390fd5b80915050919050565b60008073ffffffffffffffffffffffffffffffffffffffff168273ffffffffffffffffffffffffffffffffffffffff1603610cc9576040517f08c379a0000000000000000000000000000000000000000000000000000000008152600401610cc0906130a7565b60405180910390fd5b600360008373ffffffffffffffffffffffffffffffffffffffff1673ffffffffffffffffffffffffffffffffffffffff168152602001908152602001600020549050919050565b610d18611979565b610d226000611a34565b565b60606009805480602002602001604051908101604052809291908181526020016000905b82821015610e6c578382906000526020600020906003020160405180606001604052908160008201548152602001600182018054610d8590612de2565b80601f0160208091040260200160405190810160405280929190818152602001828054610db190612de2565b8015610dfe5780601f10610dd357610100808354040283529160200191610dfe565b820191906000526020600020905b815481529060010190602001808311610de157829003601f168201915b505050505081526020016002820160009054906101000a900473ffffffffffffffffffffffffffffffffffffffff1673ffffffffffffffffffffffffffffffffffffffff1673ffffffffffffffffffffffffffffffffffffffff168152505081526020019060010190610d48565b50505050905090565b6000600660009054906101000a900473ffffffffffffffffffffffffffffffffffffffff16905090565b606060018054610eae90612de2565b80601f0160208091040260200160405190810160405280929190818152602001828054610eda90612de2565b8015610f275780601f10610efc57610100808354040283529160200191610f27565b820191906000526020600020905b815481529060010190602001808311610f0a57829003601f168201915b5050505050905090565b610f43610f3c6114e8565b8383611afa565b5050565b610f58610f526114e8565b836115eb565b610f97576040517f08c379a0000000000000000000000000000000000000000000000000000000008152600401610f8e90612fa9565b60405180910390fd5b610fa384848484611c66565b50505050565b6060610fb48261149d565b6000610fbe611cc2565b90506000815111610fde5760405180602001604052806000815250611009565b80610fe884611cd9565b604051602001610ff9929190613103565b6040516020818303038152906040525b915050919050565b6008805461101e90612de2565b80601f016020809104026020016040519081016040528092919081815260200182805461104a90612de2565b80156110975780601f1061106c57610100808354040283529160200191611097565b820191906000526020600020905b81548152906001019060200180831161107a57829003601f168201915b505050505081565b6060600a60003373ffffffffffffffffffffffffffffffffffffffff1673ffffffffffffffffffffffffffffffffffffffff168152602001908152602001600020805480602002602001604051908101604052809291908181526020016000905b8282101561122457838290600052602060002090600302016040518060600160405290816000820154815260200160018201805461113d90612de2565b80601f016020809104026020016040519081016040528092919081815260200182805461116990612de2565b80156111b65780601f1061118b576101008083540402835291602001916111b6565b820191906000526020600020905b81548152906001019060200180831161119957829003601f168201915b505050505081526020016002820160009054906101000a900473ffffffffffffffffffffffffffffffffffffffff1673ffffffffffffffffffffffffffffffffffffffff1673ffffffffffffffffffffffffffffffffffffffff168152505081526020019060010190611100565b50505050905090565b6000600560008473ffffffffffffffffffffffffffffffffffffffff1673ffffffffffffffffffffffffffffffffffffffff16815260200190815260200160002060008373ffffffffffffffffffffffffffffffffffffffff1673ffffffffffffffffffffffffffffffffffffffff16815260200190815260200160002060009054906101000a900460ff16905092915050565b6112c9611979565b600073ffffffffffffffffffffffffffffffffffffffff168173ffffffffffffffffffffffffffffffffffffffff1603611338576040517f08c379a000000000000000000000000000000000000000000000000000000000815260040161132f90613199565b60405180910390fd5b61134181611a34565b50565b600a602052816000526040600020818154811061136057600080fd5b90600052602060002090600302016000915091505080600001549080600101805461138a90612de2565b80601f01602080910402602001604051908101604052809291908181526020018280546113b690612de2565b80156114035780601f106113d857610100808354040283529160200191611403565b820191906000526020600020905b8154815290600101906020018083116113e657829003601f168201915b5050505050908060020160009054906101000a900473ffffffffffffffffffffffffffffffffffffffff16905083565b60007f01ffc9a7000000000000000000000000000000000000000000000000000000007bffffffffffffffffffffffffffffffffffffffffffffffffffffffff1916827bffffffffffffffffffffffffffffffffffffffffffffffffffffffff1916149050919050565b6114a681611da7565b6114e5576040517f08c379a00000000000000000000000000000000000000000000000000000000081526004016114dc90613015565b60405180910390fd5b50565b600033905090565b816004600083815260200190815260200160002060006101000a81548173ffffffffffffffffffffffffffffffffffffffff021916908373ffffffffffffffffffffffffffffffffffffffff160217905550808273ffffffffffffffffffffffffffffffffffffffff1661156383610bd3565b73ffffffffffffffffffffffffffffffffffffffff167f8c5be1e5ebec7d5bd14f71427d1e84f3dd0314c0f7b2291e5b200ac8c7c3b92560405160405180910390a45050565b600081600001549050919050565b6115d1828260405180602001604052806000815250611de8565b5050565b6001816000016000828254019250508190555050565b6000806115f783610bd3565b90508073ffffffffffffffffffffffffffffffffffffffff168473ffffffffffffffffffffffffffffffffffffffff1614806116395750611638818561122d565b5b8061167757508373ffffffffffffffffffffffffffffffffffffffff1661165f846106e7565b73ffffffffffffffffffffffffffffffffffffffff16145b91505092915050565b8273ffffffffffffffffffffffffffffffffffffffff166116a082610bd3565b73ffffffffffffffffffffffffffffffffffffffff16146116f6576040517f08c379a00000000000000000000000000000000000000000000000000000000081526004016116ed9061322b565b60405180910390fd5b600073ffffffffffffffffffffffffffffffffffffffff168273ffffffffffffffffffffffffffffffffffffffff1603611765576040517f08c379a000000000000000000000000000000000000000000000000000000000815260040161175c906132bd565b60405180910390fd5b6117728383836001611e43565b8273ffffffffffffffffffffffffffffffffffffffff1661179282610bd3565b73ffffffffffffffffffffffffffffffffffffffff16146117e8576040517f08c379a00000000000000000000000000000000000000000000000000000000081526004016117df9061322b565b60405180910390fd5b6004600082815260200190815260200160002060006101000a81549073ffffffffffffffffffffffffffffffffffffffff02191690556001600360008573ffffffffffffffffffffffffffffffffffffffff1673ffffffffffffffffffffffffffffffffffffffff168152602001908152602001600020600082825403925050819055506001600360008473ffffffffffffffffffffffffffffffffffffffff1673ffffffffffffffffffffffffffffffffffffffff16815260200190815260200160002060008282540192505081905550816002600083815260200190815260200160002060006101000a81548173ffffffffffffffffffffffffffffffffffffffff021916908373ffffffffffffffffffffffffffffffffffffffff160217905550808273ffffffffffffffffffffffffffffffffffffffff168473ffffffffffffffffffffffffffffffffffffffff167fddf252ad1be2c89b69c2b068fc378daa952ba7f163c4a11628f55a4df523b3ef60405160405180910390a46119748383836001611f69565b505050565b6119816114e8565b73ffffffffffffffffffffffffffffffffffffffff1661199f610e75565b73ffffffffffffffffffffffffffffffffffffffff16146119f5576040517f08c379a00000000000000000000000000000000000000000000000000000000081526004016119ec90613329565b60405180910390fd5b565b60006002600083815260200190815260200160002060009054906101000a900473ffffffffffffffffffffffffffffffffffffffff169050919050565b6000600660009054906101000a900473ffffffffffffffffffffffffffffffffffffffff16905081600660006101000a81548173ffffffffffffffffffffffffffffffffffffffff021916908373ffffffffffffffffffffffffffffffffffffffff1602179055508173ffffffffffffffffffffffffffffffffffffffff168173ffffffffffffffffffffffffffffffffffffffff167f8be0079c531659141344cd1fd0a4f28419497f9722a3daafe3b4186f6b6457e060405160405180910390a35050565b8173ffffffffffffffffffffffffffffffffffffffff168373ffffffffffffffffffffffffffffffffffffffff1603611b68576040517f08c379a0000000000000000000000000000000000000000000000000000000008152600401611b5f90613395565b60405180910390fd5b80600560008573ffffffffffffffffffffffffffffffffffffffff1673ffffffffffffffffffffffffffffffffffffffff16815260200190815260200160002060008473ffffffffffffffffffffffffffffffffffffffff1673ffffffffffffffffffffffffffffffffffffffff16815260200190815260200160002060006101000a81548160ff0219169083151502179055508173ffffffffffffffffffffffffffffffffffffffff168373ffffffffffffffffffffffffffffffffffffffff167f17307eab39ab6107e8899845ad3d59bd9653f200f220920489ca2b5937696c3183604051611c5991906125e0565b60405180910390a3505050565b611c71848484611680565b611c7d84848484611f6f565b611cbc576040517f08c379a0000000000000000000000000000000000000000000000000000000008152600401611cb390613427565b60405180910390fd5b50505050565b606060405180602001604052806000815250905090565b606060006001611ce8846120f6565b01905060008167ffffffffffffffff811115611d0757611d0661283e565b5b6040519080825280601f01601f191660200182016040528015611d395781602001600182028036833780820191505090505b509050600082602001820190505b600115611d9c578080600190039150507f3031323334353637383961626364656600000000000000000000000000000000600a86061a8153600a8581611d9057611d8f613447565b5b04945060008503611d47575b819350505050919050565b60008073ffffffffffffffffffffffffffffffffffffffff16611dc9836119f7565b73ffffffffffffffffffffffffffffffffffffffff1614159050919050565b611df28383612249565b611dff6000848484611f6f565b611e3e576040517f08c379a0000000000000000000000000000000000000000000000000000000008152600401611e3590613427565b60405180910390fd5b505050565b6001811115611f6357600073ffffffffffffffffffffffffffffffffffffffff168473ffffffffffffffffffffffffffffffffffffffff1614611ed75780600360008673ffffffffffffffffffffffffffffffffffffffff1673ffffffffffffffffffffffffffffffffffffffff1681526020019081526020016000206000828254611ecf91906134a5565b925050819055505b600073ffffffffffffffffffffffffffffffffffffffff168373ffffffffffffffffffffffffffffffffffffffff1614611f625780600360008573ffffffffffffffffffffffffffffffffffffffff1673ffffffffffffffffffffffffffffffffffffffff1681526020019081526020016000206000828254611f5a91906134d9565b925050819055505b5b50505050565b50505050565b6000611f908473ffffffffffffffffffffffffffffffffffffffff16612466565b156120e9578373ffffffffffffffffffffffffffffffffffffffff1663150b7a02611fb96114e8565b8786866040518563ffffffff1660e01b8152600401611fdb9493929190613584565b6020604051808303816000875af192505050801561201757506040513d601f19601f8201168201806040525081019061201491906135e5565b60015b612099573d8060008114612047576040519150601f19603f3d011682016040523d82523d6000602084013e61204c565b606091505b506000815103612091576040517f08c379a000000000000000000000000000000000000000000000000000000000815260040161208890613427565b60405180910390fd5b805181602001fd5b63150b7a0260e01b7bffffffffffffffffffffffffffffffffffffffffffffffffffffffff1916817bffffffffffffffffffffffffffffffffffffffffffffffffffffffff1916149150506120ee565b600190505b949350505050565b600080600090507a184f03e93ff9f4daa797ed6e38ed64bf6a1f0100000000000000008310612154577a184f03e93ff9f4daa797ed6e38ed64bf6a1f010000000000000000838161214a57612149613447565b5b0492506040810190505b6d04ee2d6d415b85acef81000000008310612191576d04ee2d6d415b85acef8100000000838161218757612186613447565b5b0492506020810190505b662386f26fc1000083106121c057662386f26fc1000083816121b6576121b5613447565b5b0492506010810190505b6305f5e10083106121e9576305f5e10083816121df576121de613447565b5b0492506008810190505b612710831061220e57612710838161220457612203613447565b5b0492506004810190505b60648310612231576064838161222757612226613447565b5b0492506002810190505b600a8310612240576001810190505b80915050919050565b600073ffffffffffffffffffffffffffffffffffffffff168273ffffffffffffffffffffffffffffffffffffffff16036122b8576040517f08c379a00000000000000000000000000000000000000000000000000000000081526004016122af9061365e565b60405180910390fd5b6122c181611da7565b15612301576040517f08c379a00000000000000000000000000000000000000000000000000000000081526004016122f8906136ca565b60405180910390fd5b61230f600083836001611e43565b61231881611da7565b15612358576040517f08c379a000000000000000000000000000000000000000000000000000000000815260040161234f906136ca565b60405180910390fd5b6001600360008473ffffffffffffffffffffffffffffffffffffffff1673ffffffffffffffffffffffffffffffffffffffff16815260200190815260200160002060008282540192505081905550816002600083815260200190815260200160002060006101000a81548173ffffffffffffffffffffffffffffffffffffffff021916908373ffffffffffffffffffffffffffffffffffffffff160217905550808273ffffffffffffffffffffffffffffffffffffffff16600073ffffffffffffffffffffffffffffffffffffffff167fddf252ad1be2c89b69c2b068fc378daa952ba7f163c4a11628f55a4df523b3ef60405160405180910390a4612462600083836001611f69565b5050565b6000808273ffffffffffffffffffffffffffffffffffffffff163b119050919050565b82805461249590612de2565b90600052602060002090601f0160209004810192826124b757600085556124fe565b82601f106124d057805160ff19168380011785556124fe565b828001600101855582156124fe579182015b828111156124fd5782518255916020019190600101906124e2565b5b50905061250b919061250f565b5090565b5b80821115612528576000816000905550600101612510565b5090565b6000604051905090565b600080fd5b600080fd5b60007fffffffff0000000000000000000000000000000000000000000000000000000082169050919050565b61257581612540565b811461258057600080fd5b50565b6000813590506125928161256c565b92915050565b6000602082840312156125ae576125ad612536565b5b60006125bc84828501612583565b91505092915050565b60008115159050919050565b6125da816125c5565b82525050565b60006020820190506125f560008301846125d1565b92915050565b600081519050919050565b600082825260208201905092915050565b60005b8381101561263557808201518184015260208101905061261a565b83811115612644576000848401525b50505050565b6000601f19601f8301169050919050565b6000612666826125fb565b6126708185612606565b9350612680818560208601612617565b6126898161264a565b840191505092915050565b600060208201905081810360008301526126ae818461265b565b905092915050565b6000819050919050565b6126c9816126b6565b81146126d457600080fd5b50565b6000813590506126e6816126c0565b92915050565b60006020828403121561270257612701612536565b5b6000612710848285016126d7565b91505092915050565b600073ffffffffffffffffffffffffffffffffffffffff82169050919050565b600061274482612719565b9050919050565b61275481612739565b82525050565b600060208201905061276f600083018461274b565b92915050565b61277e81612739565b811461278957600080fd5b50565b60008135905061279b81612775565b92915050565b600080604083850312156127b8576127b7612536565b5b60006127c68582860161278c565b92505060206127d7858286016126d7565b9150509250929050565b6000806000606084860312156127fa576127f9612536565b5b60006128088682870161278c565b93505060206128198682870161278c565b925050604061282a868287016126d7565b9150509250925092565b600080fd5b600080fd5b7f4e487b7100000000000000000000000000000000000000000000000000000000600052604160045260246000fd5b6128768261264a565b810181811067ffffffffffffffff821117156128955761289461283e565b5b80604052505050565b60006128a861252c565b90506128b4828261286d565b919050565b600067ffffffffffffffff8211156128d4576128d361283e565b5b6128dd8261264a565b9050602081019050919050565b82818337600083830152505050565b600061290c612907846128b9565b61289e565b90508281526020810184848401111561292857612927612839565b5b6129338482856128ea565b509392505050565b600082601f8301126129505761294f612834565b5b81356129608482602086016128f9565b91505092915050565b60006020828403121561297f5761297e612536565b5b600082013567ffffffffffffffff81111561299d5761299c61253b565b5b6129a98482850161293b565b91505092915050565b6129bb816126b6565b82525050565b60006060820190506129d660008301866129b2565b81810360208301526129e8818561265b565b90506129f7604083018461274b565b949350505050565b600060208284031215612a1557612a14612536565b5b6000612a238482850161278c565b91505092915050565b6000602082019050612a4160008301846129b2565b92915050565b600081519050919050565b600082825260208201905092915050565b6000819050602082019050919050565b612a7c816126b6565b82525050565b600082825260208201905092915050565b6000612a9e826125fb565b612aa88185612a82565b9350612ab8818560208601612617565b612ac18161264a565b840191505092915050565b612ad581612739565b82525050565b6000606083016000830151612af36000860182612a73565b5060208301518482036020860152612b0b8282612a93565b9150506040830151612b206040860182612acc565b508091505092915050565b6000612b378383612adb565b905092915050565b6000602082019050919050565b6000612b5782612a47565b612b618185612a52565b935083602082028501612b7385612a63565b8060005b85811015612baf5784840389528151612b908582612b2b565b9450612b9b83612b3f565b925060208a01995050600181019050612b77565b50829750879550505050505092915050565b60006020820190508181036000830152612bdb8184612b4c565b905092915050565b612bec816125c5565b8114612bf757600080fd5b50565b600081359050612c0981612be3565b92915050565b60008060408385031215612c2657612c25612536565b5b6000612c348582860161278c565b9250506020612c4585828601612bfa565b9150509250929050565b600067ffffffffffffffff821115612c6a57612c6961283e565b5b612c738261264a565b9050602081019050919050565b6000612c93612c8e84612c4f565b61289e565b905082815260208101848484011115612caf57612cae612839565b5b612cba8482856128ea565b509392505050565b600082601f830112612cd757612cd6612834565b5b8135612ce7848260208601612c80565b91505092915050565b60008060008060808587031215612d0a57612d09612536565b5b6000612d188782880161278c565b9450506020612d298782880161278c565b9350506040612d3a878288016126d7565b925050606085013567ffffffffffffffff811115612d5b57612d5a61253b565b5b612d6787828801612cc2565b91505092959194509250565b60008060408385031215612d8a57612d89612536565b5b6000612d988582860161278c565b9250506020612da98582860161278c565b9150509250929050565b7f4e487b7100000000000000000000000000000000000000000000000000000000600052602260045260246000fd5b60006002820490506001821680612dfa57607f821691505b602082108103612e0d57612e0c612db3565b5b50919050565b7f4552433732313a20617070726f76616c20746f2063757272656e74206f776e6560008201527f7200000000000000000000000000000000000000000000000000000000000000602082015250565b6000612e6f602183612606565b9150612e7a82612e13565b604082019050919050565b60006020820190508181036000830152612e9e81612e62565b9050919050565b7f4552433732313a20617070726f76652063616c6c6572206973206e6f7420746f60008201527f6b656e206f776e6572206f7220617070726f76656420666f7220616c6c000000602082015250565b6000612f01603d83612606565b9150612f0c82612ea5565b604082019050919050565b60006020820190508181036000830152612f3081612ef4565b9050919050565b7f4552433732313a2063616c6c6572206973206e6f7420746f6b656e206f776e6560008201527f72206f7220617070726f76656400000000000000000000000000000000000000602082015250565b6000612f93602d83612606565b9150612f9e82612f37565b604082019050919050565b60006020820190508181036000830152612fc281612f86565b9050919050565b7f4552433732313a20696e76616c696420746f6b656e2049440000000000000000600082015250565b6000612fff601883612606565b915061300a82612fc9565b602082019050919050565b6000602082019050818103600083015261302e81612ff2565b9050919050565b7f4552433732313a2061646472657373207a65726f206973206e6f74206120766160008201527f6c6964206f776e65720000000000000000000000000000000000000000000000602082015250565b6000613091602983612606565b915061309c82613035565b604082019050919050565b600060208201905081810360008301526130c081613084565b9050919050565b600081905092915050565b60006130dd826125fb565b6130e781856130c7565b93506130f7818560208601612617565b80840191505092915050565b600061310f82856130d2565b915061311b82846130d2565b91508190509392505050565b7f4f776e61626c653a206e6577206f776e657220697320746865207a65726f206160008201527f6464726573730000000000000000000000000000000000000000000000000000602082015250565b6000613183602683612606565b915061318e82613127565b604082019050919050565b600060208201905081810360008301526131b281613176565b9050919050565b7f4552433732313a207472616e736665722066726f6d20696e636f72726563742060008201527f6f776e6572000000000000000000000000000000000000000000000000000000602082015250565b6000613215602583612606565b9150613220826131b9565b604082019050919050565b6000602082019050818103600083015261324481613208565b9050919050565b7f4552433732313a207472616e7366657220746f20746865207a65726f2061646460008201527f7265737300000000000000000000000000000000000000000000000000000000602082015250565b60006132a7602483612606565b91506132b28261324b565b604082019050919050565b600060208201905081810360008301526132d68161329a565b9050919050565b7f4f776e61626c653a2063616c6c6572206973206e6f7420746865206f776e6572600082015250565b6000613313602083612606565b915061331e826132dd565b602082019050919050565b6000602082019050818103600083015261334281613306565b9050919050565b7f4552433732313a20617070726f766520746f2063616c6c657200000000000000600082015250565b600061337f601983612606565b915061338a82613349565b602082019050919050565b600060208201905081810360008301526133ae81613372565b9050919050565b7f4552433732313a207472616e7366657220746f206e6f6e20455243373231526560008201527f63656976657220696d706c656d656e7465720000000000000000000000000000602082015250565b6000613411603283612606565b915061341c826133b5565b604082019050919050565b6000602082019050818103600083015261344081613404565b9050919050565b7f4e487b7100000000000000000000000000000000000000000000000000000000600052601260045260246000fd5b7f4e487b7100000000000000000000000000000000000000000000000000000000600052601160045260246000fd5b60006134b0826126b6565b91506134bb836126b6565b9250828210156134ce576134cd613476565b5b828203905092915050565b60006134e4826126b6565b91506134ef836126b6565b9250827fffffffffffffffffffffffffffffffffffffffffffffffffffffffffffffffff0382111561352457613523613476565b5b828201905092915050565b600081519050919050565b600082825260208201905092915050565b60006135568261352f565b613560818561353a565b9350613570818560208601612617565b6135798161264a565b840191505092915050565b6000608082019050613599600083018761274b565b6135a6602083018661274b565b6135b360408301856129b2565b81810360608301526135c5818461354b565b905095945050505050565b6000815190506135df8161256c565b92915050565b6000602082840312156135fb576135fa612536565b5b6000613609848285016135d0565b91505092915050565b7f4552433732313a206d696e7420746f20746865207a65726f2061646472657373600082015250565b6000613648602083612606565b915061365382613612565b602082019050919050565b600060208201905081810360008301526136778161363b565b9050919050565b7f4552433732313a20746f6b656e20616c7265616479206d696e74656400000000600082015250565b60006136b4601c83612606565b91506136bf8261367e565b602082019050919050565b600060208201905081810360008301526136e3816136a7565b905091905056fea2646970667358221220cafbab85e0187002b4ea873a08031c90954e9304d6263f78b6ffc3d03a1bb7bc64736f6c634300080d0033",
  "immutableReferences": {},
  "source": "//SPDX-License-Identifier: MIT\npragma solidity ^0.8.13;\n\nimport \"@openzeppelin/contracts/utils/Counters.sol\";\nimport \"@openzeppelin/contracts/access/Ownable.sol\";\nimport \"@openzeppelin/contracts/utils/math/SafeMath.sol\";\nimport \"@openzeppelin/contracts/token/ERC721/ERC721.sol\";\n\ncontract ClimateNFT is ERC721, Ownable {\n    using SafeMath for uint256;\n    using Counters for Counters.Counter;\n\n\n    constructor(string memory baseURI, string memory name, string memory symbol) ERC721(name, symbol) {\n        setBaseURI(baseURI);\n    }\n\n    Counters.Counter private _tokenIds;\n\n    string public baseTokenURI;\n\n\n    struct CToken {\n        uint256 tokenId;\n        string tokenName;\n        address owner;\n    }\n\n    CToken[] public allTokens;\n\n    mapping(address => CToken[]) public userTokens;\n\n    function setBaseURI(string memory _baseTokenURI) public onlyOwner {\n        baseTokenURI = _baseTokenURI;\n    }\n    function getAllToken() public view returns (CToken[] memory) {\n        return allTokens;\n    }\n\n    function getUserToken() public view returns (CToken [] memory) {\n        return userTokens[msg.sender];\n    }\n\n    // Mint new token and update the list\n    function mintCToken() public payable {\n        string memory _tokenName = \"my-token\";\n        uint256 _tokenId = _tokenIds.current();\n        _safeMint(msg.sender, _tokenId);\n        _tokenIds.increment();\n\n\n        CToken memory token = CToken({tokenId:_tokenId, tokenName:_tokenName, owner:msg.sender});\n        userTokens[msg.sender].push(token);\n\n        allTokens.push(token);\n    }\n}\n\n",
  "sourcePath": "/home/kennedy/Documents/Dev-Stuff/Group-C-Project/Ethereum/nft-for-climate-change/contracts/ClimateNTF.sol",
  "compiler": {
    "name": "solc",
    "version": "0.8.13+commit.abaa5c0e.Emscripten.clang"
  },
  "schemaVersion": "3.4.11",
  "updatedAt": "2022-12-03T10:52:34.060Z",
  "networkType": "ethereum",
  "devdoc": {
    "kind": "dev",
    "methods": {
      "approve(address,uint256)": {
        "details": "See {IERC721-approve}."
      },
      "balanceOf(address)": {
        "details": "See {IERC721-balanceOf}."
      },
      "getApproved(uint256)": {
        "details": "See {IERC721-getApproved}."
      },
      "isApprovedForAll(address,address)": {
        "details": "See {IERC721-isApprovedForAll}."
      },
      "name()": {
        "details": "See {IERC721Metadata-name}."
      },
      "owner()": {
        "details": "Returns the address of the current owner."
      },
      "ownerOf(uint256)": {
        "details": "See {IERC721-ownerOf}."
      },
      "renounceOwnership()": {
        "details": "Leaves the contract without owner. It will not be possible to call `onlyOwner` functions anymore. Can only be called by the current owner. NOTE: Renouncing ownership will leave the contract without an owner, thereby removing any functionality that is only available to the owner."
      },
      "safeTransferFrom(address,address,uint256)": {
        "details": "See {IERC721-safeTransferFrom}."
      },
      "safeTransferFrom(address,address,uint256,bytes)": {
        "details": "See {IERC721-safeTransferFrom}."
      },
      "setApprovalForAll(address,bool)": {
        "details": "See {IERC721-setApprovalForAll}."
      },
      "supportsInterface(bytes4)": {
        "details": "See {IERC165-supportsInterface}."
      },
      "symbol()": {
        "details": "See {IERC721Metadata-symbol}."
      },
      "tokenURI(uint256)": {
        "details": "See {IERC721Metadata-tokenURI}."
      },
      "transferFrom(address,address,uint256)": {
        "details": "See {IERC721-transferFrom}."
      },
      "transferOwnership(address)": {
        "details": "Transfers ownership of the contract to a new account (`newOwner`). Can only be called by the current owner."
      }
    },
    "version": 1
  },
  "userdoc": {
    "kind": "user",
    "methods": {},
    "version": 1
  }
}