{
  "contractName": "SimpleStorage",
  "abi": [
    {
      "inputs": [],
      "name": "name",
      "outputs": [
        {
          "internalType": "string",
          "name": "",
          "type": "string"
        }
      ],
      "stateMutability": "view",
      "type": "function"
    },
    {
      "inputs": [
        {
          "internalType": "uint256",
          "name": "x",
          "type": "uint256"
        }
      ],
      "name": "set",
      "outputs": [],
      "stateMutability": "nonpayable",
      "type": "function"
    },
    {
      "inputs": [],
      "name": "get",
      "outputs": [
        {
          "internalType": "uint256",
          "name": "",
          "type": "uint256"
        }
      ],
      "stateMutability": "view",
      "type": "function"
    }
  ],
  "bytecode": "0x60806040526040518060400160405280600d81526020017f53696d706c6553746f72616765000000000000000000000000000000000000008152506000908051906020019061004f929190610062565b5034801561005c57600080fd5b50610165565b82805461006e90610134565b90600052602060002090601f01602090048101928261009057600085556100d7565b82601f106100a957805160ff19168380011785556100d7565b828001600101855582156100d7579182015b828111156100d65782518255916020019190600101906100bb565b5b5090506100e491906100e8565b5090565b5b808211156101015760008160009055506001016100e9565b5090565b7f4e487b7100000000000000000000000000000000000000000000000000000000600052602260045260246000fd5b6000600282049050600182168061014c57607f821691505b60208210810361015f5761015e610105565b5b50919050565b610323806101746000396000f3fe608060405234801561001057600080fd5b50600436106100415760003560e01c806306fdde031461004657806360fe47b1146100645780636d4ce63c14610080575b600080fd5b61004e61009e565b60405161005b91906101d9565b60405180910390f35b61007e60048036038101906100799190610236565b61012c565b005b610088610136565b6040516100959190610272565b60405180910390f35b600080546100ab906102bc565b80601f01602080910402602001604051908101604052809291908181526020018280546100d7906102bc565b80156101245780601f106100f957610100808354040283529160200191610124565b820191906000526020600020905b81548152906001019060200180831161010757829003601f168201915b505050505081565b8060018190555050565b6000600154905090565b600081519050919050565b600082825260208201905092915050565b60005b8381101561017a57808201518184015260208101905061015f565b83811115610189576000848401525b50505050565b6000601f19601f8301169050919050565b60006101ab82610140565b6101b5818561014b565b93506101c581856020860161015c565b6101ce8161018f565b840191505092915050565b600060208201905081810360008301526101f381846101a0565b905092915050565b600080fd5b6000819050919050565b61021381610200565b811461021e57600080fd5b50565b6000813590506102308161020a565b92915050565b60006020828403121561024c5761024b6101fb565b5b600061025a84828501610221565b91505092915050565b61026c81610200565b82525050565b60006020820190506102876000830184610263565b92915050565b7f4e487b7100000000000000000000000000000000000000000000000000000000600052602260045260246000fd5b600060028204905060018216806102d457607f821691505b6020821081036102e7576102e661028d565b5b5091905056fea26469706673582212202ad4be3c5d15f1d21edf4ecf4853ce583adc32f45e8ed0c5c4faa4e8edb680f264736f6c634300080d0033",
  "immutableReferences": {},
  "source": "//SPDX-License-Identifier: MIT\n\npragma solidity >=0.4.22 <0.9.0;\n\ncontract SimpleStorage {\n  string public name = \"SimpleStorage\";\n  uint storedData;\n\n  function set(uint x) public {\n    storedData = x;\n  }\n\n  function get() public view returns (uint) {\n    return storedData;\n  }\n}",
  "sourcePath": "/home/kennedy/Documents/Dev-Stuff/Group-C-Project/Ethereum/nft-for-climate-change/contracts/SimpleStorage.sol",
  "compiler": {
    "name": "solc",
    "version": "0.8.13+commit.abaa5c0e.Emscripten.clang"
  },
  "schemaVersion": "3.4.11",
  "updatedAt": "2022-12-07T10:28:34.919Z",
  "devdoc": {
    "kind": "dev",
    "methods": {},
    "version": 1
  },
  "userdoc": {
    "kind": "user",
    "methods": {},
    "version": 1
  }
}